{
	"contracts/ChrisToken.sol": {
		"ChrisToken": {
			"abi": [
				{
					"inputs": [
						{
							"internalType": "uint256",
							"name": "initialSupply",
							"type": "uint256"
						}
					],
					"stateMutability": "nonpayable",
					"type": "constructor"
				},
				{
					"anonymous": false,
					"inputs": [
						{
							"indexed": true,
							"internalType": "address",
							"name": "tokenOwner",
							"type": "address"
						},
						{
							"indexed": true,
							"internalType": "address",
							"name": "spender",
							"type": "address"
						},
						{
							"indexed": false,
							"internalType": "uint256",
							"name": "tokens",
							"type": "uint256"
						}
					],
					"name": "Approval",
					"type": "event"
				},
				{
					"anonymous": false,
					"inputs": [
						{
							"indexed": true,
							"internalType": "address",
							"name": "from",
							"type": "address"
						},
						{
							"indexed": true,
							"internalType": "address",
							"name": "to",
							"type": "address"
						},
						{
							"indexed": false,
							"internalType": "uint256",
							"name": "tokens",
							"type": "uint256"
						}
					],
					"name": "Transfer",
					"type": "event"
				},
				{
					"inputs": [],
					"name": "_totalSupply",
					"outputs": [
						{
							"internalType": "uint256",
							"name": "",
							"type": "uint256"
						}
					],
					"stateMutability": "view",
					"type": "function"
				},
				{
					"inputs": [
						{
							"internalType": "address",
							"name": "tokenOwner",
							"type": "address"
						},
						{
							"internalType": "address",
							"name": "spender",
							"type": "address"
						}
					],
					"name": "allowance",
					"outputs": [
						{
							"internalType": "uint256",
							"name": "remaining",
							"type": "uint256"
						}
					],
					"stateMutability": "view",
					"type": "function"
				},
				{
					"inputs": [
						{
							"internalType": "address",
							"name": "spender",
							"type": "address"
						},
						{
							"internalType": "uint256",
							"name": "tokens",
							"type": "uint256"
						}
					],
					"name": "approve",
					"outputs": [
						{
							"internalType": "bool",
							"name": "success",
							"type": "bool"
						}
					],
					"stateMutability": "nonpayable",
					"type": "function"
				},
				{
					"inputs": [
						{
							"internalType": "address",
							"name": "tokenOwner",
							"type": "address"
						}
					],
					"name": "balanceOf",
					"outputs": [
						{
							"internalType": "uint256",
							"name": "",
							"type": "uint256"
						}
					],
					"stateMutability": "view",
					"type": "function"
				},
				{
					"inputs": [
						{
							"internalType": "uint256",
							"name": "amount",
							"type": "uint256"
						}
					],
					"name": "burn",
					"outputs": [
						{
							"internalType": "bool",
							"name": "success",
							"type": "bool"
						}
					],
					"stateMutability": "nonpayable",
					"type": "function"
				},
				{
					"inputs": [],
					"name": "decimals",
					"outputs": [
						{
							"internalType": "uint8",
							"name": "",
							"type": "uint8"
						}
					],
					"stateMutability": "view",
					"type": "function"
				},
				{
					"inputs": [],
					"name": "name",
					"outputs": [
						{
							"internalType": "string",
							"name": "",
							"type": "string"
						}
					],
					"stateMutability": "view",
					"type": "function"
				},
				{
					"inputs": [
						{
							"internalType": "uint256",
							"name": "a",
							"type": "uint256"
						},
						{
							"internalType": "uint256",
							"name": "b",
							"type": "uint256"
						}
					],
					"name": "safeAdd",
					"outputs": [
						{
							"internalType": "uint256",
							"name": "c",
							"type": "uint256"
						}
					],
					"stateMutability": "pure",
					"type": "function"
				},
				{
					"inputs": [
						{
							"internalType": "uint256",
							"name": "a",
							"type": "uint256"
						},
						{
							"internalType": "uint256",
							"name": "b",
							"type": "uint256"
						}
					],
					"name": "safeDiv",
					"outputs": [
						{
							"internalType": "uint256",
							"name": "c",
							"type": "uint256"
						}
					],
					"stateMutability": "pure",
					"type": "function"
				},
				{
					"inputs": [
						{
							"internalType": "uint256",
							"name": "a",
							"type": "uint256"
						},
						{
							"internalType": "uint256",
							"name": "b",
							"type": "uint256"
						}
					],
					"name": "safeMul",
					"outputs": [
						{
							"internalType": "uint256",
							"name": "c",
							"type": "uint256"
						}
					],
					"stateMutability": "pure",
					"type": "function"
				},
				{
					"inputs": [
						{
							"internalType": "uint256",
							"name": "a",
							"type": "uint256"
						},
						{
							"internalType": "uint256",
							"name": "b",
							"type": "uint256"
						}
					],
					"name": "safeSub",
					"outputs": [
						{
							"internalType": "uint256",
							"name": "c",
							"type": "uint256"
						}
					],
					"stateMutability": "pure",
					"type": "function"
				},
				{
					"inputs": [],
					"name": "symbol",
					"outputs": [
						{
							"internalType": "string",
							"name": "",
							"type": "string"
						}
					],
					"stateMutability": "view",
					"type": "function"
				},
				{
					"inputs": [],
					"name": "totalSupply",
					"outputs": [
						{
							"internalType": "uint256",
							"name": "",
							"type": "uint256"
						}
					],
					"stateMutability": "view",
					"type": "function"
				},
				{
					"inputs": [
						{
							"internalType": "address",
							"name": "to",
							"type": "address"
						},
						{
							"internalType": "uint256",
							"name": "tokens",
							"type": "uint256"
						}
					],
					"name": "transfer",
					"outputs": [
						{
							"internalType": "bool",
							"name": "success",
							"type": "bool"
						}
					],
					"stateMutability": "nonpayable",
					"type": "function"
				},
				{
					"inputs": [
						{
							"internalType": "address",
							"name": "from",
							"type": "address"
						},
						{
							"internalType": "address",
							"name": "to",
							"type": "address"
						},
						{
							"internalType": "uint256",
							"name": "tokens",
							"type": "uint256"
						}
					],
					"name": "transferFrom",
					"outputs": [
						{
							"internalType": "bool",
							"name": "success",
							"type": "bool"
						}
					],
					"stateMutability": "nonpayable",
					"type": "function"
				}
			],
			"devdoc": {
				"kind": "dev",
				"methods": {},
				"version": 1
			},
			"evm": {
				"assembly": "    /* \"contracts/ChrisToken.sol\":87:1685  contract ChrisToken is GenericToken {... */\n  mstore(0x40, 0x80)\n    /* \"contracts/ChrisToken.sol\":315:906  constructor(uint256 initialSupply) GenericToken(\"ChrisToken\", \"CHRIS\", 18, initialSupply) {... */\n  callvalue\n  dup1\n  iszero\n  tag_1\n  jumpi\n  0x00\n  dup1\n  revert\ntag_1:\n  pop\n  mload(0x40)\n  sub(codesize, bytecodeSize)\n  dup1\n  bytecodeSize\n  dup4\n  codecopy\n  dup2\n  dup2\n  add\n  0x40\n  mstore\n  dup2\n  add\n  swap1\n  tag_2\n  swap2\n  swap1\n  tag_3\n  jump\t// in\ntag_2:\n    /* \"contracts/GenericToken.sol\":1592:1856  constructor(string memory _name, string memory _symbol, uint8 _decimals, uint256 initialSupply) {... */\n  mload(0x40)\n  dup1\n  0x40\n  add\n  0x40\n  mstore\n  dup1\n  0x0a\n  dup2\n  mstore\n  0x20\n  add\n  0x4368726973546f6b656e00000000000000000000000000000000000000000000\n  dup2\n  mstore\n  pop\n  mload(0x40)\n  dup1\n  0x40\n  add\n  0x40\n  mstore\n  dup1\n  0x05\n  dup2\n  mstore\n  0x20\n  add\n  0x4348524953000000000000000000000000000000000000000000000000000000\n  dup2\n  mstore\n  pop\n    /* \"contracts/ChrisToken.sol\":386:388  18 */\n  0x12\n    /* \"contracts/ChrisToken.sol\":390:403  initialSupply */\n  dup4\n    /* \"contracts/GenericToken.sol\":1705:1710  _name */\n  dup4\n    /* \"contracts/GenericToken.sol\":1698:1702  name */\n  0x01\n    /* \"contracts/GenericToken.sol\":1698:1710  name = _name */\n  swap1\n  dup1\n  mload\n  swap1\n  0x20\n  add\n  swap1\n  tag_7\n  swap3\n  swap2\n  swap1\n  tag_8\n  jump\t// in\ntag_7:\n  pop\n    /* \"contracts/GenericToken.sol\":1729:1736  _symbol */\n  dup3\n    /* \"contracts/GenericToken.sol\":1720:1726  symbol */\n  0x00\n    /* \"contracts/GenericToken.sol\":1720:1736  symbol = _symbol */\n  swap1\n  dup1\n  mload\n  swap1\n  0x20\n  add\n  swap1\n  tag_9\n  swap3\n  swap2\n  swap1\n  tag_8\n  jump\t// in\ntag_9:\n  pop\n    /* \"contracts/GenericToken.sol\":1757:1766  _decimals */\n  dup2\n    /* \"contracts/GenericToken.sol\":1746:1754  decimals */\n  0x02\n  0x00\n    /* \"contracts/GenericToken.sol\":1746:1766  decimals = _decimals */\n  0x0100\n  exp\n  dup2\n  sload\n  dup2\n  0xff\n  mul\n  not\n  and\n  swap1\n  dup4\n  0xff\n  and\n  mul\n  or\n  swap1\n  sstore\n  pop\n    /* \"contracts/GenericToken.sol\":1791:1804  initialSupply */\n  dup1\n    /* \"contracts/GenericToken.sol\":1776:1788  _totalSupply */\n  0x03\n    /* \"contracts/GenericToken.sol\":1776:1804  _totalSupply = initialSupply */\n  dup2\n  swap1\n  sstore\n  pop\n    /* \"contracts/GenericToken.sol\":1837:1849  _totalSupply */\n  sload(0x03)\n    /* \"contracts/GenericToken.sol\":1814:1822  balances */\n  0x04\n    /* \"contracts/GenericToken.sol\":1814:1834  balances[msg.sender] */\n  0x00\n    /* \"contracts/GenericToken.sol\":1823:1833  msg.sender */\n  caller\n    /* \"contracts/GenericToken.sol\":1814:1834  balances[msg.sender] */\n  0xffffffffffffffffffffffffffffffffffffffff\n  and\n  0xffffffffffffffffffffffffffffffffffffffff\n  and\n  dup2\n  mstore\n  0x20\n  add\n  swap1\n  dup2\n  mstore\n  0x20\n  add\n  0x00\n  keccak256\n    /* \"contracts/GenericToken.sol\":1814:1849  balances[msg.sender] = _totalSupply */\n  dup2\n  swap1\n  sstore\n  pop\n    /* \"contracts/GenericToken.sol\":1592:1856  constructor(string memory _name, string memory _symbol, uint8 _decimals, uint256 initialSupply) {... */\n  pop\n  pop\n  pop\n  pop\n    /* \"contracts/ChrisToken.sol\":824:837  initialSupply */\n  dup1\n    /* \"contracts/ChrisToken.sol\":801:809  balances */\n  0x04\n    /* \"contracts/ChrisToken.sol\":801:821  balances[msg.sender] */\n  0x00\n    /* \"contracts/ChrisToken.sol\":810:820  msg.sender */\n  caller\n    /* \"contracts/ChrisToken.sol\":801:821  balances[msg.sender] */\n  0xffffffffffffffffffffffffffffffffffffffff\n  and\n  0xffffffffffffffffffffffffffffffffffffffff\n  and\n  dup2\n  mstore\n  0x20\n  add\n  swap1\n  dup2\n  mstore\n  0x20\n  add\n  0x00\n  keccak256\n    /* \"contracts/ChrisToken.sol\":801:837  balances[msg.sender] = initialSupply */\n  dup2\n  swap1\n  sstore\n  pop\n    /* \"contracts/ChrisToken.sol\":873:883  msg.sender */\n  caller\n    /* \"contracts/ChrisToken.sol\":852:899  Transfer(address(0), msg.sender, initialSupply) */\n  0xffffffffffffffffffffffffffffffffffffffff\n  and\n    /* \"contracts/ChrisToken.sol\":869:870  0 */\n  0x00\n    /* \"contracts/ChrisToken.sol\":852:899  Transfer(address(0), msg.sender, initialSupply) */\n  0xffffffffffffffffffffffffffffffffffffffff\n  and\n  0xddf252ad1be2c89b69c2b068fc378daa952ba7f163c4a11628f55a4df523b3ef\n    /* \"contracts/ChrisToken.sol\":885:898  initialSupply */\n  dup4\n    /* \"contracts/ChrisToken.sol\":852:899  Transfer(address(0), msg.sender, initialSupply) */\n  mload(0x40)\n  tag_11\n  swap2\n  swap1\n  tag_12\n  jump\t// in\ntag_11:\n  mload(0x40)\n  dup1\n  swap2\n  sub\n  swap1\n  log3\n    /* \"contracts/ChrisToken.sol\":315:906  constructor(uint256 initialSupply) GenericToken(\"ChrisToken\", \"CHRIS\", 18, initialSupply) {... */\n  pop\n    /* \"contracts/ChrisToken.sol\":87:1685  contract ChrisToken is GenericToken {... */\n  jump(tag_13)\ntag_8:\n  dup3\n  dup1\n  sload\n  tag_14\n  swap1\n  tag_15\n  jump\t// in\ntag_14:\n  swap1\n  0x00\n  mstore\n  keccak256(0x00, 0x20)\n  swap1\n  0x1f\n  add\n  0x20\n  swap1\n  div\n  dup2\n  add\n  swap3\n  dup3\n  tag_17\n  jumpi\n  0x00\n  dup6\n  sstore\n  jump(tag_16)\ntag_17:\n  dup3\n  0x1f\n  lt\n  tag_18\n  jumpi\n  dup1\n  mload\n  not(0xff)\n  and\n  dup4\n  dup1\n  add\n  or\n  dup6\n  sstore\n  jump(tag_16)\ntag_18:\n  dup3\n  dup1\n  add\n  0x01\n  add\n  dup6\n  sstore\n  dup3\n  iszero\n  tag_16\n  jumpi\n  swap2\n  dup3\n  add\ntag_19:\n  dup3\n  dup2\n  gt\n  iszero\n  tag_20\n  jumpi\n  dup3\n  mload\n  dup3\n  sstore\n  swap2\n  0x20\n  add\n  swap2\n  swap1\n  0x01\n  add\n  swap1\n  jump(tag_19)\ntag_20:\ntag_16:\n  pop\n  swap1\n  pop\n  tag_21\n  swap2\n  swap1\n  tag_22\n  jump\t// in\ntag_21:\n  pop\n  swap1\n  jump\t// out\ntag_22:\ntag_23:\n  dup1\n  dup3\n  gt\n  iszero\n  tag_24\n  jumpi\n  0x00\n  dup2\n  0x00\n  swap1\n  sstore\n  pop\n  0x01\n  add\n  jump(tag_23)\ntag_24:\n  pop\n  swap1\n  jump\t// out\n    /* \"#utility.yul\":7:150   */\ntag_26:\n  0x00\n    /* \"#utility.yul\":95:101   */\n  dup2\n    /* \"#utility.yul\":89:102   */\n  mload\n    /* \"#utility.yul\":80:102   */\n  swap1\n  pop\n    /* \"#utility.yul\":111:144   */\n  tag_28\n    /* \"#utility.yul\":138:143   */\n  dup2\n    /* \"#utility.yul\":111:144   */\n  tag_29\n  jump\t// in\ntag_28:\n    /* \"#utility.yul\":70:150   */\n  swap3\n  swap2\n  pop\n  pop\n  jump\t// out\n    /* \"#utility.yul\":156:440   */\ntag_3:\n  0x00\n    /* \"#utility.yul\":275:277   */\n  0x20\n    /* \"#utility.yul\":263:272   */\n  dup3\n    /* \"#utility.yul\":254:261   */\n  dup5\n    /* \"#utility.yul\":250:273   */\n  sub\n    /* \"#utility.yul\":246:278   */\n  slt\n    /* \"#utility.yul\":243:245   */\n  iszero\n  tag_31\n  jumpi\n    /* \"#utility.yul\":291:292   */\n  0x00\n    /* \"#utility.yul\":288:289   */\n  dup1\n    /* \"#utility.yul\":281:293   */\n  revert\n    /* \"#utility.yul\":243:245   */\ntag_31:\n    /* \"#utility.yul\":334:335   */\n  0x00\n    /* \"#utility.yul\":359:423   */\n  tag_32\n    /* \"#utility.yul\":415:422   */\n  dup5\n    /* \"#utility.yul\":406:412   */\n  dup3\n    /* \"#utility.yul\":395:404   */\n  dup6\n    /* \"#utility.yul\":391:413   */\n  add\n    /* \"#utility.yul\":359:423   */\n  tag_26\n  jump\t// in\ntag_32:\n    /* \"#utility.yul\":349:423   */\n  swap2\n  pop\n    /* \"#utility.yul\":305:433   */\n  pop\n    /* \"#utility.yul\":233:440   */\n  swap3\n  swap2\n  pop\n  pop\n  jump\t// out\n    /* \"#utility.yul\":446:564   */\ntag_33:\n    /* \"#utility.yul\":533:557   */\n  tag_35\n    /* \"#utility.yul\":551:556   */\n  dup2\n    /* \"#utility.yul\":533:557   */\n  tag_36\n  jump\t// in\ntag_35:\n    /* \"#utility.yul\":528:531   */\n  dup3\n    /* \"#utility.yul\":521:558   */\n  mstore\n    /* \"#utility.yul\":511:564   */\n  pop\n  pop\n  jump\t// out\n    /* \"#utility.yul\":570:792   */\ntag_12:\n  0x00\n    /* \"#utility.yul\":701:703   */\n  0x20\n    /* \"#utility.yul\":690:699   */\n  dup3\n    /* \"#utility.yul\":686:704   */\n  add\n    /* \"#utility.yul\":678:704   */\n  swap1\n  pop\n    /* \"#utility.yul\":714:785   */\n  tag_38\n    /* \"#utility.yul\":782:783   */\n  0x00\n    /* \"#utility.yul\":771:780   */\n  dup4\n    /* \"#utility.yul\":767:784   */\n  add\n    /* \"#utility.yul\":758:764   */\n  dup5\n    /* \"#utility.yul\":714:785   */\n  tag_33\n  jump\t// in\ntag_38:\n    /* \"#utility.yul\":668:792   */\n  swap3\n  swap2\n  pop\n  pop\n  jump\t// out\n    /* \"#utility.yul\":798:875   */\ntag_36:\n  0x00\n    /* \"#utility.yul\":864:869   */\n  dup2\n    /* \"#utility.yul\":853:869   */\n  swap1\n  pop\n    /* \"#utility.yul\":843:875   */\n  swap2\n  swap1\n  pop\n  jump\t// out\n    /* \"#utility.yul\":881:1201   */\ntag_15:\n  0x00\n    /* \"#utility.yul\":962:963   */\n  0x02\n    /* \"#utility.yul\":956:960   */\n  dup3\n    /* \"#utility.yul\":952:964   */\n  div\n    /* \"#utility.yul\":942:964   */\n  swap1\n  pop\n    /* \"#utility.yul\":1009:1010   */\n  0x01\n    /* \"#utility.yul\":1003:1007   */\n  dup3\n    /* \"#utility.yul\":999:1011   */\n  and\n    /* \"#utility.yul\":1030:1048   */\n  dup1\n    /* \"#utility.yul\":1020:1022   */\n  tag_41\n  jumpi\n    /* \"#utility.yul\":1086:1090   */\n  0x7f\n    /* \"#utility.yul\":1078:1084   */\n  dup3\n    /* \"#utility.yul\":1074:1091   */\n  and\n    /* \"#utility.yul\":1064:1091   */\n  swap2\n  pop\n    /* \"#utility.yul\":1020:1022   */\ntag_41:\n    /* \"#utility.yul\":1148:1150   */\n  0x20\n    /* \"#utility.yul\":1140:1146   */\n  dup3\n    /* \"#utility.yul\":1137:1151   */\n  lt\n    /* \"#utility.yul\":1117:1135   */\n  dup2\n    /* \"#utility.yul\":1114:1152   */\n  eq\n    /* \"#utility.yul\":1111:1113   */\n  iszero\n  tag_42\n  jumpi\n    /* \"#utility.yul\":1167:1185   */\n  tag_43\n  tag_44\n  jump\t// in\ntag_43:\n    /* \"#utility.yul\":1111:1113   */\ntag_42:\n    /* \"#utility.yul\":932:1201   */\n  pop\n  swap2\n  swap1\n  pop\n  jump\t// out\n    /* \"#utility.yul\":1207:1387   */\ntag_44:\n    /* \"#utility.yul\":1255:1332   */\n  0x4e487b7100000000000000000000000000000000000000000000000000000000\n    /* \"#utility.yul\":1252:1253   */\n  0x00\n    /* \"#utility.yul\":1245:1333   */\n  mstore\n    /* \"#utility.yul\":1352:1356   */\n  0x22\n    /* \"#utility.yul\":1349:1350   */\n  0x04\n    /* \"#utility.yul\":1342:1357   */\n  mstore\n    /* \"#utility.yul\":1376:1380   */\n  0x24\n    /* \"#utility.yul\":1373:1374   */\n  0x00\n    /* \"#utility.yul\":1366:1381   */\n  revert\n    /* \"#utility.yul\":1393:1515   */\ntag_29:\n    /* \"#utility.yul\":1466:1490   */\n  tag_47\n    /* \"#utility.yul\":1484:1489   */\n  dup2\n    /* \"#utility.yul\":1466:1490   */\n  tag_36\n  jump\t// in\ntag_47:\n    /* \"#utility.yul\":1459:1464   */\n  dup2\n    /* \"#utility.yul\":1456:1491   */\n  eq\n    /* \"#utility.yul\":1446:1448   */\n  tag_48\n  jumpi\n    /* \"#utility.yul\":1505:1506   */\n  0x00\n    /* \"#utility.yul\":1502:1503   */\n  dup1\n    /* \"#utility.yul\":1495:1507   */\n  revert\n    /* \"#utility.yul\":1446:1448   */\ntag_48:\n    /* \"#utility.yul\":1436:1515   */\n  pop\n  jump\t// out\n    /* \"contracts/ChrisToken.sol\":87:1685  contract ChrisToken is GenericToken {... */\ntag_13:\n  dataSize(sub_0)\n  dup1\n  dataOffset(sub_0)\n  0x00\n  codecopy\n  0x00\n  return\nstop\n\nsub_0: assembly {\n        /* \"contracts/ChrisToken.sol\":87:1685  contract ChrisToken is GenericToken {... */\n      mstore(0x40, 0x80)\n      callvalue\n      dup1\n      iszero\n      tag_1\n      jumpi\n      0x00\n      dup1\n      revert\n    tag_1:\n      pop\n      jumpi(tag_2, lt(calldatasize, 0x04))\n      shr(0xe0, calldataload(0x00))\n      dup1\n      0x70a08231\n      gt\n      tag_18\n      jumpi\n      dup1\n      0xb5931f7c\n      gt\n      tag_19\n      jumpi\n      dup1\n      0xb5931f7c\n      eq\n      tag_14\n      jumpi\n      dup1\n      0xd05c78da\n      eq\n      tag_15\n      jumpi\n      dup1\n      0xdd62ed3e\n      eq\n      tag_16\n      jumpi\n      dup1\n      0xe6cb9013\n      eq\n      tag_17\n      jumpi\n      jump(tag_2)\n    tag_19:\n      dup1\n      0x70a08231\n      eq\n      tag_10\n      jumpi\n      dup1\n      0x95d89b41\n      eq\n      tag_11\n      jumpi\n      dup1\n      0xa293d1e8\n      eq\n      tag_12\n      jumpi\n      dup1\n      0xa9059cbb\n      eq\n      tag_13\n      jumpi\n      jump(tag_2)\n    tag_18:\n      dup1\n      0x23b872dd\n      gt\n      tag_20\n      jumpi\n      dup1\n      0x23b872dd\n      eq\n      tag_6\n      jumpi\n      dup1\n      0x313ce567\n      eq\n      tag_7\n      jumpi\n      dup1\n      0x3eaaf86b\n      eq\n      tag_8\n      jumpi\n      dup1\n      0x42966c68\n      eq\n      tag_9\n      jumpi\n      jump(tag_2)\n    tag_20:\n      dup1\n      0x06fdde03\n      eq\n      tag_3\n      jumpi\n      dup1\n      0x095ea7b3\n      eq\n      tag_4\n      jumpi\n      dup1\n      0x18160ddd\n      eq\n      tag_5\n      jumpi\n    tag_2:\n      0x00\n      dup1\n      revert\n        /* \"contracts/GenericToken.sol\":1409:1427  string public name */\n    tag_3:\n      tag_21\n      tag_22\n      jump\t// in\n    tag_21:\n      mload(0x40)\n      tag_23\n      swap2\n      swap1\n      tag_24\n      jump\t// in\n    tag_23:\n      mload(0x40)\n      dup1\n      swap2\n      sub\n      swap1\n      return\n        /* \"contracts/GenericToken.sol\":2431:2647  function approve(address spender, uint256 tokens) public override returns (bool success) {... */\n    tag_4:\n      tag_25\n      0x04\n      dup1\n      calldatasize\n      sub\n      dup2\n      add\n      swap1\n      tag_26\n      swap2\n      swap1\n      tag_27\n      jump\t// in\n    tag_26:\n      tag_28\n      jump\t// in\n    tag_25:\n      mload(0x40)\n      tag_29\n      swap2\n      swap1\n      tag_30\n      jump\t// in\n    tag_29:\n      mload(0x40)\n      dup1\n      swap2\n      sub\n      swap1\n      return\n        /* \"contracts/GenericToken.sol\":1862:1960  function totalSupply() public override view returns (uint256) {... */\n    tag_5:\n      tag_31\n      tag_32\n      jump\t// in\n    tag_31:\n      mload(0x40)\n      tag_33\n      swap2\n      swap1\n      tag_34\n      jump\t// in\n    tag_33:\n      mload(0x40)\n      dup1\n      swap2\n      sub\n      swap1\n      return\n        /* \"contracts/GenericToken.sol\":2813:3341  function transferFrom(address from, address to, uint256 tokens) public override returns (bool success) {... */\n    tag_6:\n      tag_35\n      0x04\n      dup1\n      calldatasize\n      sub\n      dup2\n      add\n      swap1\n      tag_36\n      swap2\n      swap1\n      tag_37\n      jump\t// in\n    tag_36:\n      tag_38\n      jump\t// in\n    tag_35:\n      mload(0x40)\n      tag_39\n      swap2\n      swap1\n      tag_30\n      jump\t// in\n    tag_39:\n      mload(0x40)\n      dup1\n      swap2\n      sub\n      swap1\n      return\n        /* \"contracts/GenericToken.sol\":1433:1454  uint8 public decimals */\n    tag_7:\n      tag_40\n      tag_41\n      jump\t// in\n    tag_40:\n      mload(0x40)\n      tag_42\n      swap2\n      swap1\n      tag_43\n      jump\t// in\n    tag_42:\n      mload(0x40)\n      dup1\n      swap2\n      sub\n      swap1\n      return\n        /* \"contracts/GenericToken.sol\":1460:1487  uint256 public _totalSupply */\n    tag_8:\n      tag_44\n      tag_45\n      jump\t// in\n    tag_44:\n      mload(0x40)\n      tag_46\n      swap2\n      swap1\n      tag_34\n      jump\t// in\n    tag_46:\n      mload(0x40)\n      dup1\n      swap2\n      sub\n      swap1\n      return\n        /* \"contracts/ChrisToken.sol\":1100:1683  function burn(uint256 amount) public returns (bool success) {... */\n    tag_9:\n      tag_47\n      0x04\n      dup1\n      calldatasize\n      sub\n      dup2\n      add\n      swap1\n      tag_48\n      swap2\n      swap1\n      tag_49\n      jump\t// in\n    tag_48:\n      tag_50\n      jump\t// in\n    tag_47:\n      mload(0x40)\n      tag_51\n      swap2\n      swap1\n      tag_30\n      jump\t// in\n    tag_51:\n      mload(0x40)\n      dup1\n      swap2\n      sub\n      swap1\n      return\n        /* \"contracts/GenericToken.sol\":1966:2088  function balanceOf(address tokenOwner) public override view returns (uint256) {... */\n    tag_10:\n      tag_52\n      0x04\n      dup1\n      calldatasize\n      sub\n      dup2\n      add\n      swap1\n      tag_53\n      swap2\n      swap1\n      tag_54\n      jump\t// in\n    tag_53:\n      tag_55\n      jump\t// in\n    tag_52:\n      mload(0x40)\n      tag_56\n      swap2\n      swap1\n      tag_34\n      jump\t// in\n    tag_56:\n      mload(0x40)\n      dup1\n      swap2\n      sub\n      swap1\n      return\n        /* \"contracts/GenericToken.sol\":1383:1403  string public symbol */\n    tag_11:\n      tag_57\n      tag_58\n      jump\t// in\n    tag_57:\n      mload(0x40)\n      tag_59\n      swap2\n      swap1\n      tag_24\n      jump\t// in\n    tag_59:\n      mload(0x40)\n      dup1\n      swap2\n      sub\n      swap1\n      return\n        /* \"contracts/GenericToken.sol\":203:316  function safeSub(uint a, uint b) public pure returns (uint c) {... */\n    tag_12:\n      tag_60\n      0x04\n      dup1\n      calldatasize\n      sub\n      dup2\n      add\n      swap1\n      tag_61\n      swap2\n      swap1\n      tag_62\n      jump\t// in\n    tag_61:\n      tag_63\n      jump\t// in\n    tag_60:\n      mload(0x40)\n      tag_64\n      swap2\n      swap1\n      tag_34\n      jump\t// in\n    tag_64:\n      mload(0x40)\n      dup1\n      swap2\n      sub\n      swap1\n      return\n        /* \"contracts/GenericToken.sol\":2094:2425  function transfer(address to, uint tokens) public override returns (bool success) {... */\n    tag_13:\n      tag_65\n      0x04\n      dup1\n      calldatasize\n      sub\n      dup2\n      add\n      swap1\n      tag_66\n      swap2\n      swap1\n      tag_27\n      jump\t// in\n    tag_66:\n      tag_67\n      jump\t// in\n    tag_65:\n      mload(0x40)\n      tag_68\n      swap2\n      swap1\n      tag_30\n      jump\t// in\n    tag_68:\n      mload(0x40)\n      dup1\n      swap2\n      sub\n      swap1\n      return\n        /* \"contracts/GenericToken.sol\":457:569  function safeDiv(uint a, uint b) public pure returns (uint c) {... */\n    tag_14:\n      tag_69\n      0x04\n      dup1\n      calldatasize\n      sub\n      dup2\n      add\n      swap1\n      tag_70\n      swap2\n      swap1\n      tag_62\n      jump\t// in\n    tag_70:\n      tag_71\n      jump\t// in\n    tag_69:\n      mload(0x40)\n      tag_72\n      swap2\n      swap1\n      tag_34\n      jump\t// in\n    tag_72:\n      mload(0x40)\n      dup1\n      swap2\n      sub\n      swap1\n      return\n        /* \"contracts/GenericToken.sol\":323:450  function safeMul(uint a, uint b) public pure returns (uint c) {... */\n    tag_15:\n      tag_73\n      0x04\n      dup1\n      calldatasize\n      sub\n      dup2\n      add\n      swap1\n      tag_74\n      swap2\n      swap1\n      tag_62\n      jump\t// in\n    tag_74:\n      tag_75\n      jump\t// in\n    tag_73:\n      mload(0x40)\n      tag_76\n      swap2\n      swap1\n      tag_34\n      jump\t// in\n    tag_76:\n      mload(0x40)\n      dup1\n      swap2\n      sub\n      swap1\n      return\n        /* \"contracts/GenericToken.sol\":2653:2807  function allowance(address tokenOwner, address spender) public override view returns (uint remaining) {... */\n    tag_16:\n      tag_77\n      0x04\n      dup1\n      calldatasize\n      sub\n      dup2\n      add\n      swap1\n      tag_78\n      swap2\n      swap1\n      tag_79\n      jump\t// in\n    tag_78:\n      tag_80\n      jump\t// in\n    tag_77:\n      mload(0x40)\n      tag_81\n      swap2\n      swap1\n      tag_34\n      jump\t// in\n    tag_81:\n      mload(0x40)\n      dup1\n      swap2\n      sub\n      swap1\n      return\n        /* \"contracts/GenericToken.sol\":83:196  function safeAdd(uint a, uint b) public pure returns (uint c) {... */\n    tag_17:\n      tag_82\n      0x04\n      dup1\n      calldatasize\n      sub\n      dup2\n      add\n      swap1\n      tag_83\n      swap2\n      swap1\n      tag_62\n      jump\t// in\n    tag_83:\n      tag_84\n      jump\t// in\n    tag_82:\n      mload(0x40)\n      tag_85\n      swap2\n      swap1\n      tag_34\n      jump\t// in\n    tag_85:\n      mload(0x40)\n      dup1\n      swap2\n      sub\n      swap1\n      return\n        /* \"contracts/GenericToken.sol\":1409:1427  string public name */\n    tag_22:\n      0x01\n      dup1\n      sload\n      tag_86\n      swap1\n      tag_87\n      jump\t// in\n    tag_86:\n      dup1\n      0x1f\n      add\n      0x20\n      dup1\n      swap2\n      div\n      mul\n      0x20\n      add\n      mload(0x40)\n      swap1\n      dup2\n      add\n      0x40\n      mstore\n      dup1\n      swap3\n      swap2\n      swap1\n      dup2\n      dup2\n      mstore\n      0x20\n      add\n      dup3\n      dup1\n      sload\n      tag_88\n      swap1\n      tag_87\n      jump\t// in\n    tag_88:\n      dup1\n      iszero\n      tag_89\n      jumpi\n      dup1\n      0x1f\n      lt\n      tag_90\n      jumpi\n      0x0100\n      dup1\n      dup4\n      sload\n      div\n      mul\n      dup4\n      mstore\n      swap2\n      0x20\n      add\n      swap2\n      jump(tag_89)\n    tag_90:\n      dup3\n      add\n      swap2\n      swap1\n      0x00\n      mstore\n      keccak256(0x00, 0x20)\n      swap1\n    tag_91:\n      dup2\n      sload\n      dup2\n      mstore\n      swap1\n      0x01\n      add\n      swap1\n      0x20\n      add\n      dup1\n      dup4\n      gt\n      tag_91\n      jumpi\n      dup3\n      swap1\n      sub\n      0x1f\n      and\n      dup3\n      add\n      swap2\n    tag_89:\n      pop\n      pop\n      pop\n      pop\n      pop\n      dup2\n      jump\t// out\n        /* \"contracts/GenericToken.sol\":2431:2647  function approve(address spender, uint256 tokens) public override returns (bool success) {... */\n    tag_28:\n        /* \"contracts/GenericToken.sol\":2506:2518  bool success */\n      0x00\n        /* \"contracts/GenericToken.sol\":2561:2567  tokens */\n      dup2\n        /* \"contracts/GenericToken.sol\":2530:2537  allowed */\n      0x05\n        /* \"contracts/GenericToken.sol\":2530:2549  allowed[msg.sender] */\n      0x00\n        /* \"contracts/GenericToken.sol\":2538:2548  msg.sender */\n      caller\n        /* \"contracts/GenericToken.sol\":2530:2549  allowed[msg.sender] */\n      0xffffffffffffffffffffffffffffffffffffffff\n      and\n      0xffffffffffffffffffffffffffffffffffffffff\n      and\n      dup2\n      mstore\n      0x20\n      add\n      swap1\n      dup2\n      mstore\n      0x20\n      add\n      0x00\n      keccak256\n        /* \"contracts/GenericToken.sol\":2530:2558  allowed[msg.sender][spender] */\n      0x00\n        /* \"contracts/GenericToken.sol\":2550:2557  spender */\n      dup6\n        /* \"contracts/GenericToken.sol\":2530:2558  allowed[msg.sender][spender] */\n      0xffffffffffffffffffffffffffffffffffffffff\n      and\n      0xffffffffffffffffffffffffffffffffffffffff\n      and\n      dup2\n      mstore\n      0x20\n      add\n      swap1\n      dup2\n      mstore\n      0x20\n      add\n      0x00\n      keccak256\n        /* \"contracts/GenericToken.sol\":2530:2567  allowed[msg.sender][spender] = tokens */\n      dup2\n      swap1\n      sstore\n      pop\n        /* \"contracts/GenericToken.sol\":2603:2610  spender */\n      dup3\n        /* \"contracts/GenericToken.sol\":2582:2619  Approval(msg.sender, spender, tokens) */\n      0xffffffffffffffffffffffffffffffffffffffff\n      and\n        /* \"contracts/GenericToken.sol\":2591:2601  msg.sender */\n      caller\n        /* \"contracts/GenericToken.sol\":2582:2619  Approval(msg.sender, spender, tokens) */\n      0xffffffffffffffffffffffffffffffffffffffff\n      and\n      0x8c5be1e5ebec7d5bd14f71427d1e84f3dd0314c0f7b2291e5b200ac8c7c3b925\n        /* \"contracts/GenericToken.sol\":2612:2618  tokens */\n      dup5\n        /* \"contracts/GenericToken.sol\":2582:2619  Approval(msg.sender, spender, tokens) */\n      mload(0x40)\n      tag_93\n      swap2\n      swap1\n      tag_34\n      jump\t// in\n    tag_93:\n      mload(0x40)\n      dup1\n      swap2\n      sub\n      swap1\n      log3\n        /* \"contracts/GenericToken.sol\":2636:2640  true */\n      0x01\n        /* \"contracts/GenericToken.sol\":2629:2640  return true */\n      swap1\n      pop\n        /* \"contracts/GenericToken.sol\":2431:2647  function approve(address spender, uint256 tokens) public override returns (bool success) {... */\n      swap3\n      swap2\n      pop\n      pop\n      jump\t// out\n        /* \"contracts/GenericToken.sol\":1862:1960  function totalSupply() public override view returns (uint256) {... */\n    tag_32:\n        /* \"contracts/GenericToken.sol\":1915:1922  uint256 */\n      0x00\n        /* \"contracts/GenericToken.sol\":1941:1953  _totalSupply */\n      sload(0x03)\n        /* \"contracts/GenericToken.sol\":1934:1953  return _totalSupply */\n      swap1\n      pop\n        /* \"contracts/GenericToken.sol\":1862:1960  function totalSupply() public override view returns (uint256) {... */\n      swap1\n      jump\t// out\n        /* \"contracts/GenericToken.sol\":2813:3341  function transferFrom(address from, address to, uint256 tokens) public override returns (bool success) {... */\n    tag_38:\n        /* \"contracts/GenericToken.sol\":2902:2914  bool success */\n      0x00\n        /* \"contracts/GenericToken.sol\":2944:2952  balances */\n      0x04\n        /* \"contracts/GenericToken.sol\":2944:2958  balances[from] */\n      0x00\n        /* \"contracts/GenericToken.sol\":2953:2957  from */\n      dup6\n        /* \"contracts/GenericToken.sol\":2944:2958  balances[from] */\n      0xffffffffffffffffffffffffffffffffffffffff\n      and\n      0xffffffffffffffffffffffffffffffffffffffff\n      and\n      dup2\n      mstore\n      0x20\n      add\n      swap1\n      dup2\n      mstore\n      0x20\n      add\n      0x00\n      keccak256\n      sload\n        /* \"contracts/GenericToken.sol\":2934:2940  tokens */\n      dup3\n        /* \"contracts/GenericToken.sol\":2934:2958  tokens <= balances[from] */\n      gt\n      iszero\n        /* \"contracts/GenericToken.sol\":2926:2959  require(tokens <= balances[from]) */\n      tag_96\n      jumpi\n      0x00\n      dup1\n      revert\n    tag_96:\n        /* \"contracts/GenericToken.sol\":3052:3059  allowed */\n      0x05\n        /* \"contracts/GenericToken.sol\":3052:3065  allowed[from] */\n      0x00\n        /* \"contracts/GenericToken.sol\":3060:3064  from */\n      dup6\n        /* \"contracts/GenericToken.sol\":3052:3065  allowed[from] */\n      0xffffffffffffffffffffffffffffffffffffffff\n      and\n      0xffffffffffffffffffffffffffffffffffffffff\n      and\n      dup2\n      mstore\n      0x20\n      add\n      swap1\n      dup2\n      mstore\n      0x20\n      add\n      0x00\n      keccak256\n        /* \"contracts/GenericToken.sol\":3052:3077  allowed[from][msg.sender] */\n      0x00\n        /* \"contracts/GenericToken.sol\":3066:3076  msg.sender */\n      caller\n        /* \"contracts/GenericToken.sol\":3052:3077  allowed[from][msg.sender] */\n      0xffffffffffffffffffffffffffffffffffffffff\n      and\n      0xffffffffffffffffffffffffffffffffffffffff\n      and\n      dup2\n      mstore\n      0x20\n      add\n      swap1\n      dup2\n      mstore\n      0x20\n      add\n      0x00\n      keccak256\n      sload\n        /* \"contracts/GenericToken.sol\":3042:3048  tokens */\n      dup3\n        /* \"contracts/GenericToken.sol\":3042:3077  tokens <= allowed[from][msg.sender] */\n      gt\n      iszero\n        /* \"contracts/GenericToken.sol\":3034:3078  require(tokens <= allowed[from][msg.sender]) */\n      tag_97\n      jumpi\n      0x00\n      dup1\n      revert\n    tag_97:\n        /* \"contracts/GenericToken.sol\":3106:3137  safeSub(balances[from], tokens) */\n      tag_98\n        /* \"contracts/GenericToken.sol\":3114:3122  balances */\n      0x04\n        /* \"contracts/GenericToken.sol\":3114:3128  balances[from] */\n      0x00\n        /* \"contracts/GenericToken.sol\":3123:3127  from */\n      dup7\n        /* \"contracts/GenericToken.sol\":3114:3128  balances[from] */\n      0xffffffffffffffffffffffffffffffffffffffff\n      and\n      0xffffffffffffffffffffffffffffffffffffffff\n      and\n      dup2\n      mstore\n      0x20\n      add\n      swap1\n      dup2\n      mstore\n      0x20\n      add\n      0x00\n      keccak256\n      sload\n        /* \"contracts/GenericToken.sol\":3130:3136  tokens */\n      dup4\n        /* \"contracts/GenericToken.sol\":3106:3113  safeSub */\n      tag_63\n        /* \"contracts/GenericToken.sol\":3106:3137  safeSub(balances[from], tokens) */\n      jump\t// in\n    tag_98:\n        /* \"contracts/GenericToken.sol\":3089:3097  balances */\n      0x04\n        /* \"contracts/GenericToken.sol\":3089:3103  balances[from] */\n      0x00\n        /* \"contracts/GenericToken.sol\":3098:3102  from */\n      dup7\n        /* \"contracts/GenericToken.sol\":3089:3103  balances[from] */\n      0xffffffffffffffffffffffffffffffffffffffff\n      and\n      0xffffffffffffffffffffffffffffffffffffffff\n      and\n      dup2\n      mstore\n      0x20\n      add\n      swap1\n      dup2\n      mstore\n      0x20\n      add\n      0x00\n      keccak256\n        /* \"contracts/GenericToken.sol\":3089:3137  balances[from] = safeSub(balances[from], tokens) */\n      dup2\n      swap1\n      sstore\n      pop\n        /* \"contracts/GenericToken.sol\":3176:3218  safeSub(allowed[from][msg.sender], tokens) */\n      tag_99\n        /* \"contracts/GenericToken.sol\":3184:3191  allowed */\n      0x05\n        /* \"contracts/GenericToken.sol\":3184:3197  allowed[from] */\n      0x00\n        /* \"contracts/GenericToken.sol\":3192:3196  from */\n      dup7\n        /* \"contracts/GenericToken.sol\":3184:3197  allowed[from] */\n      0xffffffffffffffffffffffffffffffffffffffff\n      and\n      0xffffffffffffffffffffffffffffffffffffffff\n      and\n      dup2\n      mstore\n      0x20\n      add\n      swap1\n      dup2\n      mstore\n      0x20\n      add\n      0x00\n      keccak256\n        /* \"contracts/GenericToken.sol\":3184:3209  allowed[from][msg.sender] */\n      0x00\n        /* \"contracts/GenericToken.sol\":3198:3208  msg.sender */\n      caller\n        /* \"contracts/GenericToken.sol\":3184:3209  allowed[from][msg.sender] */\n      0xffffffffffffffffffffffffffffffffffffffff\n      and\n      0xffffffffffffffffffffffffffffffffffffffff\n      and\n      dup2\n      mstore\n      0x20\n      add\n      swap1\n      dup2\n      mstore\n      0x20\n      add\n      0x00\n      keccak256\n      sload\n        /* \"contracts/GenericToken.sol\":3211:3217  tokens */\n      dup4\n        /* \"contracts/GenericToken.sol\":3176:3183  safeSub */\n      tag_63\n        /* \"contracts/GenericToken.sol\":3176:3218  safeSub(allowed[from][msg.sender], tokens) */\n      jump\t// in\n    tag_99:\n        /* \"contracts/GenericToken.sol\":3148:3155  allowed */\n      0x05\n        /* \"contracts/GenericToken.sol\":3148:3161  allowed[from] */\n      0x00\n        /* \"contracts/GenericToken.sol\":3156:3160  from */\n      dup7\n        /* \"contracts/GenericToken.sol\":3148:3161  allowed[from] */\n      0xffffffffffffffffffffffffffffffffffffffff\n      and\n      0xffffffffffffffffffffffffffffffffffffffff\n      and\n      dup2\n      mstore\n      0x20\n      add\n      swap1\n      dup2\n      mstore\n      0x20\n      add\n      0x00\n      keccak256\n        /* \"contracts/GenericToken.sol\":3148:3173  allowed[from][msg.sender] */\n      0x00\n        /* \"contracts/GenericToken.sol\":3162:3172  msg.sender */\n      caller\n        /* \"contracts/GenericToken.sol\":3148:3173  allowed[from][msg.sender] */\n      0xffffffffffffffffffffffffffffffffffffffff\n      and\n      0xffffffffffffffffffffffffffffffffffffffff\n      and\n      dup2\n      mstore\n      0x20\n      add\n      swap1\n      dup2\n      mstore\n      0x20\n      add\n      0x00\n      keccak256\n        /* \"contracts/GenericToken.sol\":3148:3218  allowed[from][msg.sender] = safeSub(allowed[from][msg.sender], tokens) */\n      dup2\n      swap1\n      sstore\n      pop\n        /* \"contracts/GenericToken.sol\":3243:3272  safeAdd(balances[to], tokens) */\n      tag_100\n        /* \"contracts/GenericToken.sol\":3251:3259  balances */\n      0x04\n        /* \"contracts/GenericToken.sol\":3251:3263  balances[to] */\n      0x00\n        /* \"contracts/GenericToken.sol\":3260:3262  to */\n      dup6\n        /* \"contracts/GenericToken.sol\":3251:3263  balances[to] */\n      0xffffffffffffffffffffffffffffffffffffffff\n      and\n      0xffffffffffffffffffffffffffffffffffffffff\n      and\n      dup2\n      mstore\n      0x20\n      add\n      swap1\n      dup2\n      mstore\n      0x20\n      add\n      0x00\n      keccak256\n      sload\n        /* \"contracts/GenericToken.sol\":3265:3271  tokens */\n      dup4\n        /* \"contracts/GenericToken.sol\":3243:3250  safeAdd */\n      tag_84\n        /* \"contracts/GenericToken.sol\":3243:3272  safeAdd(balances[to], tokens) */\n      jump\t// in\n    tag_100:\n        /* \"contracts/GenericToken.sol\":3228:3236  balances */\n      0x04\n        /* \"contracts/GenericToken.sol\":3228:3240  balances[to] */\n      0x00\n        /* \"contracts/GenericToken.sol\":3237:3239  to */\n      dup6\n        /* \"contracts/GenericToken.sol\":3228:3240  balances[to] */\n      0xffffffffffffffffffffffffffffffffffffffff\n      and\n      0xffffffffffffffffffffffffffffffffffffffff\n      and\n      dup2\n      mstore\n      0x20\n      add\n      swap1\n      dup2\n      mstore\n      0x20\n      add\n      0x00\n      keccak256\n        /* \"contracts/GenericToken.sol\":3228:3272  balances[to] = safeAdd(balances[to], tokens) */\n      dup2\n      swap1\n      sstore\n      pop\n        /* \"contracts/GenericToken.sol\":3302:3304  to */\n      dup3\n        /* \"contracts/GenericToken.sol\":3287:3313  Transfer(from, to, tokens) */\n      0xffffffffffffffffffffffffffffffffffffffff\n      and\n        /* \"contracts/GenericToken.sol\":3296:3300  from */\n      dup5\n        /* \"contracts/GenericToken.sol\":3287:3313  Transfer(from, to, tokens) */\n      0xffffffffffffffffffffffffffffffffffffffff\n      and\n      0xddf252ad1be2c89b69c2b068fc378daa952ba7f163c4a11628f55a4df523b3ef\n        /* \"contracts/GenericToken.sol\":3306:3312  tokens */\n      dup5\n        /* \"contracts/GenericToken.sol\":3287:3313  Transfer(from, to, tokens) */\n      mload(0x40)\n      tag_101\n      swap2\n      swap1\n      tag_34\n      jump\t// in\n    tag_101:\n      mload(0x40)\n      dup1\n      swap2\n      sub\n      swap1\n      log3\n        /* \"contracts/GenericToken.sol\":3330:3334  true */\n      0x01\n        /* \"contracts/GenericToken.sol\":3323:3334  return true */\n      swap1\n      pop\n        /* \"contracts/GenericToken.sol\":2813:3341  function transferFrom(address from, address to, uint256 tokens) public override returns (bool success) {... */\n      swap4\n      swap3\n      pop\n      pop\n      pop\n      jump\t// out\n        /* \"contracts/GenericToken.sol\":1433:1454  uint8 public decimals */\n    tag_41:\n      0x02\n      0x00\n      swap1\n      sload\n      swap1\n      0x0100\n      exp\n      swap1\n      div\n      0xff\n      and\n      dup2\n      jump\t// out\n        /* \"contracts/GenericToken.sol\":1460:1487  uint256 public _totalSupply */\n    tag_45:\n      sload(0x03)\n      dup2\n      jump\t// out\n        /* \"contracts/ChrisToken.sol\":1100:1683  function burn(uint256 amount) public returns (bool success) {... */\n    tag_50:\n        /* \"contracts/ChrisToken.sol\":1146:1158  bool success */\n      0x00\n        /* \"contracts/ChrisToken.sol\":1257:1265  balances */\n      0x04\n        /* \"contracts/ChrisToken.sol\":1257:1277  balances[msg.sender] */\n      0x00\n        /* \"contracts/ChrisToken.sol\":1266:1276  msg.sender */\n      caller\n        /* \"contracts/ChrisToken.sol\":1257:1277  balances[msg.sender] */\n      0xffffffffffffffffffffffffffffffffffffffff\n      and\n      0xffffffffffffffffffffffffffffffffffffffff\n      and\n      dup2\n      mstore\n      0x20\n      add\n      swap1\n      dup2\n      mstore\n      0x20\n      add\n      0x00\n      keccak256\n      sload\n        /* \"contracts/ChrisToken.sol\":1247:1253  amount */\n      dup3\n        /* \"contracts/ChrisToken.sol\":1247:1277  amount <= balances[msg.sender] */\n      gt\n      iszero\n        /* \"contracts/ChrisToken.sol\":1239:1312  require(amount <= balances[msg.sender], \"Saldo insuficiente para queima\") */\n      tag_103\n      jumpi\n      mload(0x40)\n      0x08c379a000000000000000000000000000000000000000000000000000000000\n      dup2\n      mstore\n      0x04\n      add\n      tag_104\n      swap1\n      tag_105\n      jump\t// in\n    tag_104:\n      mload(0x40)\n      dup1\n      swap2\n      sub\n      swap1\n      revert\n    tag_103:\n        /* \"contracts/ChrisToken.sol\":1384:1421  safeSub(balances[msg.sender], amount) */\n      tag_106\n        /* \"contracts/ChrisToken.sol\":1392:1400  balances */\n      0x04\n        /* \"contracts/ChrisToken.sol\":1392:1412  balances[msg.sender] */\n      0x00\n        /* \"contracts/ChrisToken.sol\":1401:1411  msg.sender */\n      caller\n        /* \"contracts/ChrisToken.sol\":1392:1412  balances[msg.sender] */\n      0xffffffffffffffffffffffffffffffffffffffff\n      and\n      0xffffffffffffffffffffffffffffffffffffffff\n      and\n      dup2\n      mstore\n      0x20\n      add\n      swap1\n      dup2\n      mstore\n      0x20\n      add\n      0x00\n      keccak256\n      sload\n        /* \"contracts/ChrisToken.sol\":1414:1420  amount */\n      dup4\n        /* \"contracts/ChrisToken.sol\":1384:1391  safeSub */\n      tag_63\n        /* \"contracts/ChrisToken.sol\":1384:1421  safeSub(balances[msg.sender], amount) */\n      jump\t// in\n    tag_106:\n        /* \"contracts/ChrisToken.sol\":1361:1369  balances */\n      0x04\n        /* \"contracts/ChrisToken.sol\":1361:1381  balances[msg.sender] */\n      0x00\n        /* \"contracts/ChrisToken.sol\":1370:1380  msg.sender */\n      caller\n        /* \"contracts/ChrisToken.sol\":1361:1381  balances[msg.sender] */\n      0xffffffffffffffffffffffffffffffffffffffff\n      and\n      0xffffffffffffffffffffffffffffffffffffffff\n      and\n      dup2\n      mstore\n      0x20\n      add\n      swap1\n      dup2\n      mstore\n      0x20\n      add\n      0x00\n      keccak256\n        /* \"contracts/ChrisToken.sol\":1361:1421  balances[msg.sender] = safeSub(balances[msg.sender], amount) */\n      dup2\n      swap1\n      sstore\n      pop\n        /* \"contracts/ChrisToken.sol\":1484:1513  safeSub(_totalSupply, amount) */\n      tag_107\n        /* \"contracts/ChrisToken.sol\":1492:1504  _totalSupply */\n      sload(0x03)\n        /* \"contracts/ChrisToken.sol\":1506:1512  amount */\n      dup4\n        /* \"contracts/ChrisToken.sol\":1484:1491  safeSub */\n      tag_63\n        /* \"contracts/ChrisToken.sol\":1484:1513  safeSub(_totalSupply, amount) */\n      jump\t// in\n    tag_107:\n        /* \"contracts/ChrisToken.sol\":1469:1481  _totalSupply */\n      0x03\n        /* \"contracts/ChrisToken.sol\":1469:1513  _totalSupply = safeSub(_totalSupply, amount) */\n      dup2\n      swap1\n      sstore\n      pop\n        /* \"contracts/ChrisToken.sol\":1644:1645  0 */\n      0x00\n        /* \"contracts/ChrisToken.sol\":1615:1655  Transfer(msg.sender, address(0), amount) */\n      0xffffffffffffffffffffffffffffffffffffffff\n      and\n        /* \"contracts/ChrisToken.sol\":1624:1634  msg.sender */\n      caller\n        /* \"contracts/ChrisToken.sol\":1615:1655  Transfer(msg.sender, address(0), amount) */\n      0xffffffffffffffffffffffffffffffffffffffff\n      and\n      0xddf252ad1be2c89b69c2b068fc378daa952ba7f163c4a11628f55a4df523b3ef\n        /* \"contracts/ChrisToken.sol\":1648:1654  amount */\n      dup5\n        /* \"contracts/ChrisToken.sol\":1615:1655  Transfer(msg.sender, address(0), amount) */\n      mload(0x40)\n      tag_108\n      swap2\n      swap1\n      tag_34\n      jump\t// in\n    tag_108:\n      mload(0x40)\n      dup1\n      swap2\n      sub\n      swap1\n      log3\n        /* \"contracts/ChrisToken.sol\":1672:1676  true */\n      0x01\n        /* \"contracts/ChrisToken.sol\":1665:1676  return true */\n      swap1\n      pop\n        /* \"contracts/ChrisToken.sol\":1100:1683  function burn(uint256 amount) public returns (bool success) {... */\n      swap2\n      swap1\n      pop\n      jump\t// out\n        /* \"contracts/GenericToken.sol\":1966:2088  function balanceOf(address tokenOwner) public override view returns (uint256) {... */\n    tag_55:\n        /* \"contracts/GenericToken.sol\":2035:2042  uint256 */\n      0x00\n        /* \"contracts/GenericToken.sol\":2061:2069  balances */\n      0x04\n        /* \"contracts/GenericToken.sol\":2061:2081  balances[tokenOwner] */\n      0x00\n        /* \"contracts/GenericToken.sol\":2070:2080  tokenOwner */\n      dup4\n        /* \"contracts/GenericToken.sol\":2061:2081  balances[tokenOwner] */\n      0xffffffffffffffffffffffffffffffffffffffff\n      and\n      0xffffffffffffffffffffffffffffffffffffffff\n      and\n      dup2\n      mstore\n      0x20\n      add\n      swap1\n      dup2\n      mstore\n      0x20\n      add\n      0x00\n      keccak256\n      sload\n        /* \"contracts/GenericToken.sol\":2054:2081  return balances[tokenOwner] */\n      swap1\n      pop\n        /* \"contracts/GenericToken.sol\":1966:2088  function balanceOf(address tokenOwner) public override view returns (uint256) {... */\n      swap2\n      swap1\n      pop\n      jump\t// out\n        /* \"contracts/GenericToken.sol\":1383:1403  string public symbol */\n    tag_58:\n      0x00\n      dup1\n      sload\n      tag_110\n      swap1\n      tag_87\n      jump\t// in\n    tag_110:\n      dup1\n      0x1f\n      add\n      0x20\n      dup1\n      swap2\n      div\n      mul\n      0x20\n      add\n      mload(0x40)\n      swap1\n      dup2\n      add\n      0x40\n      mstore\n      dup1\n      swap3\n      swap2\n      swap1\n      dup2\n      dup2\n      mstore\n      0x20\n      add\n      dup3\n      dup1\n      sload\n      tag_111\n      swap1\n      tag_87\n      jump\t// in\n    tag_111:\n      dup1\n      iszero\n      tag_112\n      jumpi\n      dup1\n      0x1f\n      lt\n      tag_113\n      jumpi\n      0x0100\n      dup1\n      dup4\n      sload\n      div\n      mul\n      dup4\n      mstore\n      swap2\n      0x20\n      add\n      swap2\n      jump(tag_112)\n    tag_113:\n      dup3\n      add\n      swap2\n      swap1\n      0x00\n      mstore\n      keccak256(0x00, 0x20)\n      swap1\n    tag_114:\n      dup2\n      sload\n      dup2\n      mstore\n      swap1\n      0x01\n      add\n      swap1\n      0x20\n      add\n      dup1\n      dup4\n      gt\n      tag_114\n      jumpi\n      dup3\n      swap1\n      sub\n      0x1f\n      and\n      dup3\n      add\n      swap2\n    tag_112:\n      pop\n      pop\n      pop\n      pop\n      pop\n      dup2\n      jump\t// out\n        /* \"contracts/GenericToken.sol\":203:316  function safeSub(uint a, uint b) public pure returns (uint c) {... */\n    tag_63:\n        /* \"contracts/GenericToken.sol\":257:263  uint c */\n      0x00\n        /* \"contracts/GenericToken.sol\":288:289  a */\n      dup3\n        /* \"contracts/GenericToken.sol\":283:284  b */\n      dup3\n        /* \"contracts/GenericToken.sol\":283:289  b <= a */\n      gt\n      iszero\n        /* \"contracts/GenericToken.sol\":275:290  require(b <= a) */\n      tag_116\n      jumpi\n      0x00\n      dup1\n      revert\n    tag_116:\n        /* \"contracts/GenericToken.sol\":308:309  b */\n      dup2\n        /* \"contracts/GenericToken.sol\":304:305  a */\n      dup4\n        /* \"contracts/GenericToken.sol\":304:309  a - b */\n      tag_117\n      swap2\n      swap1\n      tag_118\n      jump\t// in\n    tag_117:\n        /* \"contracts/GenericToken.sol\":300:309  c = a - b */\n      swap1\n      pop\n        /* \"contracts/GenericToken.sol\":203:316  function safeSub(uint a, uint b) public pure returns (uint c) {... */\n      swap3\n      swap2\n      pop\n      pop\n      jump\t// out\n        /* \"contracts/GenericToken.sol\":2094:2425  function transfer(address to, uint tokens) public override returns (bool success) {... */\n    tag_67:\n        /* \"contracts/GenericToken.sol\":2162:2174  bool success */\n      0x00\n        /* \"contracts/GenericToken.sol\":2204:2212  balances */\n      0x04\n        /* \"contracts/GenericToken.sol\":2204:2224  balances[msg.sender] */\n      0x00\n        /* \"contracts/GenericToken.sol\":2213:2223  msg.sender */\n      caller\n        /* \"contracts/GenericToken.sol\":2204:2224  balances[msg.sender] */\n      0xffffffffffffffffffffffffffffffffffffffff\n      and\n      0xffffffffffffffffffffffffffffffffffffffff\n      and\n      dup2\n      mstore\n      0x20\n      add\n      swap1\n      dup2\n      mstore\n      0x20\n      add\n      0x00\n      keccak256\n      sload\n        /* \"contracts/GenericToken.sol\":2194:2200  tokens */\n      dup3\n        /* \"contracts/GenericToken.sol\":2194:2224  tokens <= balances[msg.sender] */\n      gt\n      iszero\n        /* \"contracts/GenericToken.sol\":2186:2225  require(tokens <= balances[msg.sender]) */\n      tag_120\n      jumpi\n      0x00\n      dup1\n      revert\n    tag_120:\n        /* \"contracts/GenericToken.sol\":2259:2296  safeSub(balances[msg.sender], tokens) */\n      tag_121\n        /* \"contracts/GenericToken.sol\":2267:2275  balances */\n      0x04\n        /* \"contracts/GenericToken.sol\":2267:2287  balances[msg.sender] */\n      0x00\n        /* \"contracts/GenericToken.sol\":2276:2286  msg.sender */\n      caller\n        /* \"contracts/GenericToken.sol\":2267:2287  balances[msg.sender] */\n      0xffffffffffffffffffffffffffffffffffffffff\n      and\n      0xffffffffffffffffffffffffffffffffffffffff\n      and\n      dup2\n      mstore\n      0x20\n      add\n      swap1\n      dup2\n      mstore\n      0x20\n      add\n      0x00\n      keccak256\n      sload\n        /* \"contracts/GenericToken.sol\":2289:2295  tokens */\n      dup4\n        /* \"contracts/GenericToken.sol\":2259:2266  safeSub */\n      tag_63\n        /* \"contracts/GenericToken.sol\":2259:2296  safeSub(balances[msg.sender], tokens) */\n      jump\t// in\n    tag_121:\n        /* \"contracts/GenericToken.sol\":2236:2244  balances */\n      0x04\n        /* \"contracts/GenericToken.sol\":2236:2256  balances[msg.sender] */\n      0x00\n        /* \"contracts/GenericToken.sol\":2245:2255  msg.sender */\n      caller\n        /* \"contracts/GenericToken.sol\":2236:2256  balances[msg.sender] */\n      0xffffffffffffffffffffffffffffffffffffffff\n      and\n      0xffffffffffffffffffffffffffffffffffffffff\n      and\n      dup2\n      mstore\n      0x20\n      add\n      swap1\n      dup2\n      mstore\n      0x20\n      add\n      0x00\n      keccak256\n        /* \"contracts/GenericToken.sol\":2236:2296  balances[msg.sender] = safeSub(balances[msg.sender], tokens) */\n      dup2\n      swap1\n      sstore\n      pop\n        /* \"contracts/GenericToken.sol\":2321:2350  safeAdd(balances[to], tokens) */\n      tag_122\n        /* \"contracts/GenericToken.sol\":2329:2337  balances */\n      0x04\n        /* \"contracts/GenericToken.sol\":2329:2341  balances[to] */\n      0x00\n        /* \"contracts/GenericToken.sol\":2338:2340  to */\n      dup6\n        /* \"contracts/GenericToken.sol\":2329:2341  balances[to] */\n      0xffffffffffffffffffffffffffffffffffffffff\n      and\n      0xffffffffffffffffffffffffffffffffffffffff\n      and\n      dup2\n      mstore\n      0x20\n      add\n      swap1\n      dup2\n      mstore\n      0x20\n      add\n      0x00\n      keccak256\n      sload\n        /* \"contracts/GenericToken.sol\":2343:2349  tokens */\n      dup4\n        /* \"contracts/GenericToken.sol\":2321:2328  safeAdd */\n      tag_84\n        /* \"contracts/GenericToken.sol\":2321:2350  safeAdd(balances[to], tokens) */\n      jump\t// in\n    tag_122:\n        /* \"contracts/GenericToken.sol\":2306:2314  balances */\n      0x04\n        /* \"contracts/GenericToken.sol\":2306:2318  balances[to] */\n      0x00\n        /* \"contracts/GenericToken.sol\":2315:2317  to */\n      dup6\n        /* \"contracts/GenericToken.sol\":2306:2318  balances[to] */\n      0xffffffffffffffffffffffffffffffffffffffff\n      and\n      0xffffffffffffffffffffffffffffffffffffffff\n      and\n      dup2\n      mstore\n      0x20\n      add\n      swap1\n      dup2\n      mstore\n      0x20\n      add\n      0x00\n      keccak256\n        /* \"contracts/GenericToken.sol\":2306:2350  balances[to] = safeAdd(balances[to], tokens) */\n      dup2\n      swap1\n      sstore\n      pop\n        /* \"contracts/GenericToken.sol\":2386:2388  to */\n      dup3\n        /* \"contracts/GenericToken.sol\":2365:2397  Transfer(msg.sender, to, tokens) */\n      0xffffffffffffffffffffffffffffffffffffffff\n      and\n        /* \"contracts/GenericToken.sol\":2374:2384  msg.sender */\n      caller\n        /* \"contracts/GenericToken.sol\":2365:2397  Transfer(msg.sender, to, tokens) */\n      0xffffffffffffffffffffffffffffffffffffffff\n      and\n      0xddf252ad1be2c89b69c2b068fc378daa952ba7f163c4a11628f55a4df523b3ef\n        /* \"contracts/GenericToken.sol\":2390:2396  tokens */\n      dup5\n        /* \"contracts/GenericToken.sol\":2365:2397  Transfer(msg.sender, to, tokens) */\n      mload(0x40)\n      tag_123\n      swap2\n      swap1\n      tag_34\n      jump\t// in\n    tag_123:\n      mload(0x40)\n      dup1\n      swap2\n      sub\n      swap1\n      log3\n        /* \"contracts/GenericToken.sol\":2414:2418  true */\n      0x01\n        /* \"contracts/GenericToken.sol\":2407:2418  return true */\n      swap1\n      pop\n        /* \"contracts/GenericToken.sol\":2094:2425  function transfer(address to, uint tokens) public override returns (bool success) {... */\n      swap3\n      swap2\n      pop\n      pop\n      jump\t// out\n        /* \"contracts/GenericToken.sol\":457:569  function safeDiv(uint a, uint b) public pure returns (uint c) {... */\n    tag_71:\n        /* \"contracts/GenericToken.sol\":511:517  uint c */\n      0x00\n        /* \"contracts/GenericToken.sol\":541:542  0 */\n      dup1\n        /* \"contracts/GenericToken.sol\":537:538  b */\n      dup3\n        /* \"contracts/GenericToken.sol\":537:542  b > 0 */\n      gt\n        /* \"contracts/GenericToken.sol\":529:543  require(b > 0) */\n      tag_125\n      jumpi\n      0x00\n      dup1\n      revert\n    tag_125:\n        /* \"contracts/GenericToken.sol\":561:562  b */\n      dup2\n        /* \"contracts/GenericToken.sol\":557:558  a */\n      dup4\n        /* \"contracts/GenericToken.sol\":557:562  a / b */\n      tag_126\n      swap2\n      swap1\n      tag_127\n      jump\t// in\n    tag_126:\n        /* \"contracts/GenericToken.sol\":553:562  c = a / b */\n      swap1\n      pop\n        /* \"contracts/GenericToken.sol\":457:569  function safeDiv(uint a, uint b) public pure returns (uint c) {... */\n      swap3\n      swap2\n      pop\n      pop\n      jump\t// out\n        /* \"contracts/GenericToken.sol\":323:450  function safeMul(uint a, uint b) public pure returns (uint c) {... */\n    tag_75:\n        /* \"contracts/GenericToken.sol\":377:383  uint c */\n      0x00\n        /* \"contracts/GenericToken.sol\":403:404  b */\n      dup2\n        /* \"contracts/GenericToken.sol\":399:400  a */\n      dup4\n        /* \"contracts/GenericToken.sol\":399:404  a * b */\n      tag_129\n      swap2\n      swap1\n      tag_130\n      jump\t// in\n    tag_129:\n        /* \"contracts/GenericToken.sol\":395:404  c = a * b */\n      swap1\n      pop\n        /* \"contracts/GenericToken.sol\":427:428  0 */\n      0x00\n        /* \"contracts/GenericToken.sol\":422:423  a */\n      dup4\n        /* \"contracts/GenericToken.sol\":422:428  a == 0 */\n      eq\n        /* \"contracts/GenericToken.sol\":422:442  a == 0 || c / a == b */\n      dup1\n      tag_131\n      jumpi\n      pop\n        /* \"contracts/GenericToken.sol\":441:442  b */\n      dup2\n        /* \"contracts/GenericToken.sol\":436:437  a */\n      dup4\n        /* \"contracts/GenericToken.sol\":432:433  c */\n      dup3\n        /* \"contracts/GenericToken.sol\":432:437  c / a */\n      tag_132\n      swap2\n      swap1\n      tag_127\n      jump\t// in\n    tag_132:\n        /* \"contracts/GenericToken.sol\":432:442  c / a == b */\n      eq\n        /* \"contracts/GenericToken.sol\":422:442  a == 0 || c / a == b */\n    tag_131:\n        /* \"contracts/GenericToken.sol\":414:443  require(a == 0 || c / a == b) */\n      tag_133\n      jumpi\n      0x00\n      dup1\n      revert\n    tag_133:\n        /* \"contracts/GenericToken.sol\":323:450  function safeMul(uint a, uint b) public pure returns (uint c) {... */\n      swap3\n      swap2\n      pop\n      pop\n      jump\t// out\n        /* \"contracts/GenericToken.sol\":2653:2807  function allowance(address tokenOwner, address spender) public override view returns (uint remaining) {... */\n    tag_80:\n        /* \"contracts/GenericToken.sol\":2739:2753  uint remaining */\n      0x00\n        /* \"contracts/GenericToken.sol\":2772:2779  allowed */\n      0x05\n        /* \"contracts/GenericToken.sol\":2772:2791  allowed[tokenOwner] */\n      0x00\n        /* \"contracts/GenericToken.sol\":2780:2790  tokenOwner */\n      dup5\n        /* \"contracts/GenericToken.sol\":2772:2791  allowed[tokenOwner] */\n      0xffffffffffffffffffffffffffffffffffffffff\n      and\n      0xffffffffffffffffffffffffffffffffffffffff\n      and\n      dup2\n      mstore\n      0x20\n      add\n      swap1\n      dup2\n      mstore\n      0x20\n      add\n      0x00\n      keccak256\n        /* \"contracts/GenericToken.sol\":2772:2800  allowed[tokenOwner][spender] */\n      0x00\n        /* \"contracts/GenericToken.sol\":2792:2799  spender */\n      dup4\n        /* \"contracts/GenericToken.sol\":2772:2800  allowed[tokenOwner][spender] */\n      0xffffffffffffffffffffffffffffffffffffffff\n      and\n      0xffffffffffffffffffffffffffffffffffffffff\n      and\n      dup2\n      mstore\n      0x20\n      add\n      swap1\n      dup2\n      mstore\n      0x20\n      add\n      0x00\n      keccak256\n      sload\n        /* \"contracts/GenericToken.sol\":2765:2800  return allowed[tokenOwner][spender] */\n      swap1\n      pop\n        /* \"contracts/GenericToken.sol\":2653:2807  function allowance(address tokenOwner, address spender) public override view returns (uint remaining) {... */\n      swap3\n      swap2\n      pop\n      pop\n      jump\t// out\n        /* \"contracts/GenericToken.sol\":83:196  function safeAdd(uint a, uint b) public pure returns (uint c) {... */\n    tag_84:\n        /* \"contracts/GenericToken.sol\":137:143  uint c */\n      0x00\n        /* \"contracts/GenericToken.sol\":163:164  b */\n      dup2\n        /* \"contracts/GenericToken.sol\":159:160  a */\n      dup4\n        /* \"contracts/GenericToken.sol\":159:164  a + b */\n      tag_136\n      swap2\n      swap1\n      tag_137\n      jump\t// in\n    tag_136:\n        /* \"contracts/GenericToken.sol\":155:164  c = a + b */\n      swap1\n      pop\n        /* \"contracts/GenericToken.sol\":187:188  a */\n      dup3\n        /* \"contracts/GenericToken.sol\":182:183  c */\n      dup2\n        /* \"contracts/GenericToken.sol\":182:188  c >= a */\n      lt\n      iszero\n        /* \"contracts/GenericToken.sol\":174:189  require(c >= a) */\n      tag_138\n      jumpi\n      0x00\n      dup1\n      revert\n    tag_138:\n        /* \"contracts/GenericToken.sol\":83:196  function safeAdd(uint a, uint b) public pure returns (uint c) {... */\n      swap3\n      swap2\n      pop\n      pop\n      jump\t// out\n        /* \"#utility.yul\":7:146   */\n    tag_140:\n      0x00\n        /* \"#utility.yul\":91:97   */\n      dup2\n        /* \"#utility.yul\":78:98   */\n      calldataload\n        /* \"#utility.yul\":69:98   */\n      swap1\n      pop\n        /* \"#utility.yul\":107:140   */\n      tag_142\n        /* \"#utility.yul\":134:139   */\n      dup2\n        /* \"#utility.yul\":107:140   */\n      tag_143\n      jump\t// in\n    tag_142:\n        /* \"#utility.yul\":59:146   */\n      swap3\n      swap2\n      pop\n      pop\n      jump\t// out\n        /* \"#utility.yul\":152:291   */\n    tag_144:\n      0x00\n        /* \"#utility.yul\":236:242   */\n      dup2\n        /* \"#utility.yul\":223:243   */\n      calldataload\n        /* \"#utility.yul\":214:243   */\n      swap1\n      pop\n        /* \"#utility.yul\":252:285   */\n      tag_146\n        /* \"#utility.yul\":279:284   */\n      dup2\n        /* \"#utility.yul\":252:285   */\n      tag_147\n      jump\t// in\n    tag_146:\n        /* \"#utility.yul\":204:291   */\n      swap3\n      swap2\n      pop\n      pop\n      jump\t// out\n        /* \"#utility.yul\":297:559   */\n    tag_54:\n      0x00\n        /* \"#utility.yul\":405:407   */\n      0x20\n        /* \"#utility.yul\":393:402   */\n      dup3\n        /* \"#utility.yul\":384:391   */\n      dup5\n        /* \"#utility.yul\":380:403   */\n      sub\n        /* \"#utility.yul\":376:408   */\n      slt\n        /* \"#utility.yul\":373:375   */\n      iszero\n      tag_149\n      jumpi\n        /* \"#utility.yul\":421:422   */\n      0x00\n        /* \"#utility.yul\":418:419   */\n      dup1\n        /* \"#utility.yul\":411:423   */\n      revert\n        /* \"#utility.yul\":373:375   */\n    tag_149:\n        /* \"#utility.yul\":464:465   */\n      0x00\n        /* \"#utility.yul\":489:542   */\n      tag_150\n        /* \"#utility.yul\":534:541   */\n      dup5\n        /* \"#utility.yul\":525:531   */\n      dup3\n        /* \"#utility.yul\":514:523   */\n      dup6\n        /* \"#utility.yul\":510:532   */\n      add\n        /* \"#utility.yul\":489:542   */\n      tag_140\n      jump\t// in\n    tag_150:\n        /* \"#utility.yul\":479:542   */\n      swap2\n      pop\n        /* \"#utility.yul\":435:552   */\n      pop\n        /* \"#utility.yul\":363:559   */\n      swap3\n      swap2\n      pop\n      pop\n      jump\t// out\n        /* \"#utility.yul\":565:972   */\n    tag_79:\n      0x00\n      dup1\n        /* \"#utility.yul\":690:692   */\n      0x40\n        /* \"#utility.yul\":678:687   */\n      dup4\n        /* \"#utility.yul\":669:676   */\n      dup6\n        /* \"#utility.yul\":665:688   */\n      sub\n        /* \"#utility.yul\":661:693   */\n      slt\n        /* \"#utility.yul\":658:660   */\n      iszero\n      tag_152\n      jumpi\n        /* \"#utility.yul\":706:707   */\n      0x00\n        /* \"#utility.yul\":703:704   */\n      dup1\n        /* \"#utility.yul\":696:708   */\n      revert\n        /* \"#utility.yul\":658:660   */\n    tag_152:\n        /* \"#utility.yul\":749:750   */\n      0x00\n        /* \"#utility.yul\":774:827   */\n      tag_153\n        /* \"#utility.yul\":819:826   */\n      dup6\n        /* \"#utility.yul\":810:816   */\n      dup3\n        /* \"#utility.yul\":799:808   */\n      dup7\n        /* \"#utility.yul\":795:817   */\n      add\n        /* \"#utility.yul\":774:827   */\n      tag_140\n      jump\t// in\n    tag_153:\n        /* \"#utility.yul\":764:827   */\n      swap3\n      pop\n        /* \"#utility.yul\":720:837   */\n      pop\n        /* \"#utility.yul\":876:878   */\n      0x20\n        /* \"#utility.yul\":902:955   */\n      tag_154\n        /* \"#utility.yul\":947:954   */\n      dup6\n        /* \"#utility.yul\":938:944   */\n      dup3\n        /* \"#utility.yul\":927:936   */\n      dup7\n        /* \"#utility.yul\":923:945   */\n      add\n        /* \"#utility.yul\":902:955   */\n      tag_140\n      jump\t// in\n    tag_154:\n        /* \"#utility.yul\":892:955   */\n      swap2\n      pop\n        /* \"#utility.yul\":847:965   */\n      pop\n        /* \"#utility.yul\":648:972   */\n      swap3\n      pop\n      swap3\n      swap1\n      pop\n      jump\t// out\n        /* \"#utility.yul\":978:1530   */\n    tag_37:\n      0x00\n      dup1\n      0x00\n        /* \"#utility.yul\":1120:1122   */\n      0x60\n        /* \"#utility.yul\":1108:1117   */\n      dup5\n        /* \"#utility.yul\":1099:1106   */\n      dup7\n        /* \"#utility.yul\":1095:1118   */\n      sub\n        /* \"#utility.yul\":1091:1123   */\n      slt\n        /* \"#utility.yul\":1088:1090   */\n      iszero\n      tag_156\n      jumpi\n        /* \"#utility.yul\":1136:1137   */\n      0x00\n        /* \"#utility.yul\":1133:1134   */\n      dup1\n        /* \"#utility.yul\":1126:1138   */\n      revert\n        /* \"#utility.yul\":1088:1090   */\n    tag_156:\n        /* \"#utility.yul\":1179:1180   */\n      0x00\n        /* \"#utility.yul\":1204:1257   */\n      tag_157\n        /* \"#utility.yul\":1249:1256   */\n      dup7\n        /* \"#utility.yul\":1240:1246   */\n      dup3\n        /* \"#utility.yul\":1229:1238   */\n      dup8\n        /* \"#utility.yul\":1225:1247   */\n      add\n        /* \"#utility.yul\":1204:1257   */\n      tag_140\n      jump\t// in\n    tag_157:\n        /* \"#utility.yul\":1194:1257   */\n      swap4\n      pop\n        /* \"#utility.yul\":1150:1267   */\n      pop\n        /* \"#utility.yul\":1306:1308   */\n      0x20\n        /* \"#utility.yul\":1332:1385   */\n      tag_158\n        /* \"#utility.yul\":1377:1384   */\n      dup7\n        /* \"#utility.yul\":1368:1374   */\n      dup3\n        /* \"#utility.yul\":1357:1366   */\n      dup8\n        /* \"#utility.yul\":1353:1375   */\n      add\n        /* \"#utility.yul\":1332:1385   */\n      tag_140\n      jump\t// in\n    tag_158:\n        /* \"#utility.yul\":1322:1385   */\n      swap3\n      pop\n        /* \"#utility.yul\":1277:1395   */\n      pop\n        /* \"#utility.yul\":1434:1436   */\n      0x40\n        /* \"#utility.yul\":1460:1513   */\n      tag_159\n        /* \"#utility.yul\":1505:1512   */\n      dup7\n        /* \"#utility.yul\":1496:1502   */\n      dup3\n        /* \"#utility.yul\":1485:1494   */\n      dup8\n        /* \"#utility.yul\":1481:1503   */\n      add\n        /* \"#utility.yul\":1460:1513   */\n      tag_144\n      jump\t// in\n    tag_159:\n        /* \"#utility.yul\":1450:1513   */\n      swap2\n      pop\n        /* \"#utility.yul\":1405:1523   */\n      pop\n        /* \"#utility.yul\":1078:1530   */\n      swap3\n      pop\n      swap3\n      pop\n      swap3\n      jump\t// out\n        /* \"#utility.yul\":1536:1943   */\n    tag_27:\n      0x00\n      dup1\n        /* \"#utility.yul\":1661:1663   */\n      0x40\n        /* \"#utility.yul\":1649:1658   */\n      dup4\n        /* \"#utility.yul\":1640:1647   */\n      dup6\n        /* \"#utility.yul\":1636:1659   */\n      sub\n        /* \"#utility.yul\":1632:1664   */\n      slt\n        /* \"#utility.yul\":1629:1631   */\n      iszero\n      tag_161\n      jumpi\n        /* \"#utility.yul\":1677:1678   */\n      0x00\n        /* \"#utility.yul\":1674:1675   */\n      dup1\n        /* \"#utility.yul\":1667:1679   */\n      revert\n        /* \"#utility.yul\":1629:1631   */\n    tag_161:\n        /* \"#utility.yul\":1720:1721   */\n      0x00\n        /* \"#utility.yul\":1745:1798   */\n      tag_162\n        /* \"#utility.yul\":1790:1797   */\n      dup6\n        /* \"#utility.yul\":1781:1787   */\n      dup3\n        /* \"#utility.yul\":1770:1779   */\n      dup7\n        /* \"#utility.yul\":1766:1788   */\n      add\n        /* \"#utility.yul\":1745:1798   */\n      tag_140\n      jump\t// in\n    tag_162:\n        /* \"#utility.yul\":1735:1798   */\n      swap3\n      pop\n        /* \"#utility.yul\":1691:1808   */\n      pop\n        /* \"#utility.yul\":1847:1849   */\n      0x20\n        /* \"#utility.yul\":1873:1926   */\n      tag_163\n        /* \"#utility.yul\":1918:1925   */\n      dup6\n        /* \"#utility.yul\":1909:1915   */\n      dup3\n        /* \"#utility.yul\":1898:1907   */\n      dup7\n        /* \"#utility.yul\":1894:1916   */\n      add\n        /* \"#utility.yul\":1873:1926   */\n      tag_144\n      jump\t// in\n    tag_163:\n        /* \"#utility.yul\":1863:1926   */\n      swap2\n      pop\n        /* \"#utility.yul\":1818:1936   */\n      pop\n        /* \"#utility.yul\":1619:1943   */\n      swap3\n      pop\n      swap3\n      swap1\n      pop\n      jump\t// out\n        /* \"#utility.yul\":1949:2211   */\n    tag_49:\n      0x00\n        /* \"#utility.yul\":2057:2059   */\n      0x20\n        /* \"#utility.yul\":2045:2054   */\n      dup3\n        /* \"#utility.yul\":2036:2043   */\n      dup5\n        /* \"#utility.yul\":2032:2055   */\n      sub\n        /* \"#utility.yul\":2028:2060   */\n      slt\n        /* \"#utility.yul\":2025:2027   */\n      iszero\n      tag_165\n      jumpi\n        /* \"#utility.yul\":2073:2074   */\n      0x00\n        /* \"#utility.yul\":2070:2071   */\n      dup1\n        /* \"#utility.yul\":2063:2075   */\n      revert\n        /* \"#utility.yul\":2025:2027   */\n    tag_165:\n        /* \"#utility.yul\":2116:2117   */\n      0x00\n        /* \"#utility.yul\":2141:2194   */\n      tag_166\n        /* \"#utility.yul\":2186:2193   */\n      dup5\n        /* \"#utility.yul\":2177:2183   */\n      dup3\n        /* \"#utility.yul\":2166:2175   */\n      dup6\n        /* \"#utility.yul\":2162:2184   */\n      add\n        /* \"#utility.yul\":2141:2194   */\n      tag_144\n      jump\t// in\n    tag_166:\n        /* \"#utility.yul\":2131:2194   */\n      swap2\n      pop\n        /* \"#utility.yul\":2087:2204   */\n      pop\n        /* \"#utility.yul\":2015:2211   */\n      swap3\n      swap2\n      pop\n      pop\n      jump\t// out\n        /* \"#utility.yul\":2217:2624   */\n    tag_62:\n      0x00\n      dup1\n        /* \"#utility.yul\":2342:2344   */\n      0x40\n        /* \"#utility.yul\":2330:2339   */\n      dup4\n        /* \"#utility.yul\":2321:2328   */\n      dup6\n        /* \"#utility.yul\":2317:2340   */\n      sub\n        /* \"#utility.yul\":2313:2345   */\n      slt\n        /* \"#utility.yul\":2310:2312   */\n      iszero\n      tag_168\n      jumpi\n        /* \"#utility.yul\":2358:2359   */\n      0x00\n        /* \"#utility.yul\":2355:2356   */\n      dup1\n        /* \"#utility.yul\":2348:2360   */\n      revert\n        /* \"#utility.yul\":2310:2312   */\n    tag_168:\n        /* \"#utility.yul\":2401:2402   */\n      0x00\n        /* \"#utility.yul\":2426:2479   */\n      tag_169\n        /* \"#utility.yul\":2471:2478   */\n      dup6\n        /* \"#utility.yul\":2462:2468   */\n      dup3\n        /* \"#utility.yul\":2451:2460   */\n      dup7\n        /* \"#utility.yul\":2447:2469   */\n      add\n        /* \"#utility.yul\":2426:2479   */\n      tag_144\n      jump\t// in\n    tag_169:\n        /* \"#utility.yul\":2416:2479   */\n      swap3\n      pop\n        /* \"#utility.yul\":2372:2489   */\n      pop\n        /* \"#utility.yul\":2528:2530   */\n      0x20\n        /* \"#utility.yul\":2554:2607   */\n      tag_170\n        /* \"#utility.yul\":2599:2606   */\n      dup6\n        /* \"#utility.yul\":2590:2596   */\n      dup3\n        /* \"#utility.yul\":2579:2588   */\n      dup7\n        /* \"#utility.yul\":2575:2597   */\n      add\n        /* \"#utility.yul\":2554:2607   */\n      tag_144\n      jump\t// in\n    tag_170:\n        /* \"#utility.yul\":2544:2607   */\n      swap2\n      pop\n        /* \"#utility.yul\":2499:2617   */\n      pop\n        /* \"#utility.yul\":2300:2624   */\n      swap3\n      pop\n      swap3\n      swap1\n      pop\n      jump\t// out\n        /* \"#utility.yul\":2630:2739   */\n    tag_171:\n        /* \"#utility.yul\":2711:2732   */\n      tag_173\n        /* \"#utility.yul\":2726:2731   */\n      dup2\n        /* \"#utility.yul\":2711:2732   */\n      tag_174\n      jump\t// in\n    tag_173:\n        /* \"#utility.yul\":2706:2709   */\n      dup3\n        /* \"#utility.yul\":2699:2733   */\n      mstore\n        /* \"#utility.yul\":2689:2739   */\n      pop\n      pop\n      jump\t// out\n        /* \"#utility.yul\":2745:3109   */\n    tag_175:\n      0x00\n        /* \"#utility.yul\":2861:2900   */\n      tag_177\n        /* \"#utility.yul\":2894:2899   */\n      dup3\n        /* \"#utility.yul\":2861:2900   */\n      tag_178\n      jump\t// in\n    tag_177:\n        /* \"#utility.yul\":2916:2987   */\n      tag_179\n        /* \"#utility.yul\":2980:2986   */\n      dup2\n        /* \"#utility.yul\":2975:2978   */\n      dup6\n        /* \"#utility.yul\":2916:2987   */\n      tag_180\n      jump\t// in\n    tag_179:\n        /* \"#utility.yul\":2909:2987   */\n      swap4\n      pop\n        /* \"#utility.yul\":2996:3048   */\n      tag_181\n        /* \"#utility.yul\":3041:3047   */\n      dup2\n        /* \"#utility.yul\":3036:3039   */\n      dup6\n        /* \"#utility.yul\":3029:3033   */\n      0x20\n        /* \"#utility.yul\":3022:3027   */\n      dup7\n        /* \"#utility.yul\":3018:3034   */\n      add\n        /* \"#utility.yul\":2996:3048   */\n      tag_182\n      jump\t// in\n    tag_181:\n        /* \"#utility.yul\":3073:3102   */\n      tag_183\n        /* \"#utility.yul\":3095:3101   */\n      dup2\n        /* \"#utility.yul\":3073:3102   */\n      tag_184\n      jump\t// in\n    tag_183:\n        /* \"#utility.yul\":3068:3071   */\n      dup5\n        /* \"#utility.yul\":3064:3103   */\n      add\n        /* \"#utility.yul\":3057:3103   */\n      swap2\n      pop\n        /* \"#utility.yul\":2837:3109   */\n      pop\n      swap3\n      swap2\n      pop\n      pop\n      jump\t// out\n        /* \"#utility.yul\":3115:3443   */\n    tag_185:\n      0x00\n        /* \"#utility.yul\":3278:3345   */\n      tag_187\n        /* \"#utility.yul\":3342:3344   */\n      0x1e\n        /* \"#utility.yul\":3337:3340   */\n      dup4\n        /* \"#utility.yul\":3278:3345   */\n      tag_180\n      jump\t// in\n    tag_187:\n        /* \"#utility.yul\":3271:3345   */\n      swap2\n      pop\n        /* \"#utility.yul\":3375:3407   */\n      0x53616c646f20696e737566696369656e7465207061726120717565696d610000\n        /* \"#utility.yul\":3371:3372   */\n      0x00\n        /* \"#utility.yul\":3366:3369   */\n      dup4\n        /* \"#utility.yul\":3362:3373   */\n      add\n        /* \"#utility.yul\":3355:3408   */\n      mstore\n        /* \"#utility.yul\":3434:3436   */\n      0x20\n        /* \"#utility.yul\":3429:3432   */\n      dup3\n        /* \"#utility.yul\":3425:3437   */\n      add\n        /* \"#utility.yul\":3418:3437   */\n      swap1\n      pop\n        /* \"#utility.yul\":3261:3443   */\n      swap2\n      swap1\n      pop\n      jump\t// out\n        /* \"#utility.yul\":3449:3567   */\n    tag_188:\n        /* \"#utility.yul\":3536:3560   */\n      tag_190\n        /* \"#utility.yul\":3554:3559   */\n      dup2\n        /* \"#utility.yul\":3536:3560   */\n      tag_191\n      jump\t// in\n    tag_190:\n        /* \"#utility.yul\":3531:3534   */\n      dup3\n        /* \"#utility.yul\":3524:3561   */\n      mstore\n        /* \"#utility.yul\":3514:3567   */\n      pop\n      pop\n      jump\t// out\n        /* \"#utility.yul\":3573:3685   */\n    tag_192:\n        /* \"#utility.yul\":3656:3678   */\n      tag_194\n        /* \"#utility.yul\":3672:3677   */\n      dup2\n        /* \"#utility.yul\":3656:3678   */\n      tag_195\n      jump\t// in\n    tag_194:\n        /* \"#utility.yul\":3651:3654   */\n      dup3\n        /* \"#utility.yul\":3644:3679   */\n      mstore\n        /* \"#utility.yul\":3634:3685   */\n      pop\n      pop\n      jump\t// out\n        /* \"#utility.yul\":3691:3901   */\n    tag_30:\n      0x00\n        /* \"#utility.yul\":3816:3818   */\n      0x20\n        /* \"#utility.yul\":3805:3814   */\n      dup3\n        /* \"#utility.yul\":3801:3819   */\n      add\n        /* \"#utility.yul\":3793:3819   */\n      swap1\n      pop\n        /* \"#utility.yul\":3829:3894   */\n      tag_197\n        /* \"#utility.yul\":3891:3892   */\n      0x00\n        /* \"#utility.yul\":3880:3889   */\n      dup4\n        /* \"#utility.yul\":3876:3893   */\n      add\n        /* \"#utility.yul\":3867:3873   */\n      dup5\n        /* \"#utility.yul\":3829:3894   */\n      tag_171\n      jump\t// in\n    tag_197:\n        /* \"#utility.yul\":3783:3901   */\n      swap3\n      swap2\n      pop\n      pop\n      jump\t// out\n        /* \"#utility.yul\":3907:4220   */\n    tag_24:\n      0x00\n        /* \"#utility.yul\":4058:4060   */\n      0x20\n        /* \"#utility.yul\":4047:4056   */\n      dup3\n        /* \"#utility.yul\":4043:4061   */\n      add\n        /* \"#utility.yul\":4035:4061   */\n      swap1\n      pop\n        /* \"#utility.yul\":4107:4116   */\n      dup2\n        /* \"#utility.yul\":4101:4105   */\n      dup2\n        /* \"#utility.yul\":4097:4117   */\n      sub\n        /* \"#utility.yul\":4093:4094   */\n      0x00\n        /* \"#utility.yul\":4082:4091   */\n      dup4\n        /* \"#utility.yul\":4078:4095   */\n      add\n        /* \"#utility.yul\":4071:4118   */\n      mstore\n        /* \"#utility.yul\":4135:4213   */\n      tag_199\n        /* \"#utility.yul\":4208:4212   */\n      dup2\n        /* \"#utility.yul\":4199:4205   */\n      dup5\n        /* \"#utility.yul\":4135:4213   */\n      tag_175\n      jump\t// in\n    tag_199:\n        /* \"#utility.yul\":4127:4213   */\n      swap1\n      pop\n        /* \"#utility.yul\":4025:4220   */\n      swap3\n      swap2\n      pop\n      pop\n      jump\t// out\n        /* \"#utility.yul\":4226:4645   */\n    tag_105:\n      0x00\n        /* \"#utility.yul\":4430:4432   */\n      0x20\n        /* \"#utility.yul\":4419:4428   */\n      dup3\n        /* \"#utility.yul\":4415:4433   */\n      add\n        /* \"#utility.yul\":4407:4433   */\n      swap1\n      pop\n        /* \"#utility.yul\":4479:4488   */\n      dup2\n        /* \"#utility.yul\":4473:4477   */\n      dup2\n        /* \"#utility.yul\":4469:4489   */\n      sub\n        /* \"#utility.yul\":4465:4466   */\n      0x00\n        /* \"#utility.yul\":4454:4463   */\n      dup4\n        /* \"#utility.yul\":4450:4467   */\n      add\n        /* \"#utility.yul\":4443:4490   */\n      mstore\n        /* \"#utility.yul\":4507:4638   */\n      tag_201\n        /* \"#utility.yul\":4633:4637   */\n      dup2\n        /* \"#utility.yul\":4507:4638   */\n      tag_185\n      jump\t// in\n    tag_201:\n        /* \"#utility.yul\":4499:4638   */\n      swap1\n      pop\n        /* \"#utility.yul\":4397:4645   */\n      swap2\n      swap1\n      pop\n      jump\t// out\n        /* \"#utility.yul\":4651:4873   */\n    tag_34:\n      0x00\n        /* \"#utility.yul\":4782:4784   */\n      0x20\n        /* \"#utility.yul\":4771:4780   */\n      dup3\n        /* \"#utility.yul\":4767:4785   */\n      add\n        /* \"#utility.yul\":4759:4785   */\n      swap1\n      pop\n        /* \"#utility.yul\":4795:4866   */\n      tag_203\n        /* \"#utility.yul\":4863:4864   */\n      0x00\n        /* \"#utility.yul\":4852:4861   */\n      dup4\n        /* \"#utility.yul\":4848:4865   */\n      add\n        /* \"#utility.yul\":4839:4845   */\n      dup5\n        /* \"#utility.yul\":4795:4866   */\n      tag_188\n      jump\t// in\n    tag_203:\n        /* \"#utility.yul\":4749:4873   */\n      swap3\n      swap2\n      pop\n      pop\n      jump\t// out\n        /* \"#utility.yul\":4879:5093   */\n    tag_43:\n      0x00\n        /* \"#utility.yul\":5006:5008   */\n      0x20\n        /* \"#utility.yul\":4995:5004   */\n      dup3\n        /* \"#utility.yul\":4991:5009   */\n      add\n        /* \"#utility.yul\":4983:5009   */\n      swap1\n      pop\n        /* \"#utility.yul\":5019:5086   */\n      tag_205\n        /* \"#utility.yul\":5083:5084   */\n      0x00\n        /* \"#utility.yul\":5072:5081   */\n      dup4\n        /* \"#utility.yul\":5068:5085   */\n      add\n        /* \"#utility.yul\":5059:5065   */\n      dup5\n        /* \"#utility.yul\":5019:5086   */\n      tag_192\n      jump\t// in\n    tag_205:\n        /* \"#utility.yul\":4973:5093   */\n      swap3\n      swap2\n      pop\n      pop\n      jump\t// out\n        /* \"#utility.yul\":5099:5198   */\n    tag_178:\n      0x00\n        /* \"#utility.yul\":5185:5190   */\n      dup2\n        /* \"#utility.yul\":5179:5191   */\n      mload\n        /* \"#utility.yul\":5169:5191   */\n      swap1\n      pop\n        /* \"#utility.yul\":5158:5198   */\n      swap2\n      swap1\n      pop\n      jump\t// out\n        /* \"#utility.yul\":5204:5373   */\n    tag_180:\n      0x00\n        /* \"#utility.yul\":5322:5328   */\n      dup3\n        /* \"#utility.yul\":5317:5320   */\n      dup3\n        /* \"#utility.yul\":5310:5329   */\n      mstore\n        /* \"#utility.yul\":5362:5366   */\n      0x20\n        /* \"#utility.yul\":5357:5360   */\n      dup3\n        /* \"#utility.yul\":5353:5367   */\n      add\n        /* \"#utility.yul\":5338:5367   */\n      swap1\n      pop\n        /* \"#utility.yul\":5300:5373   */\n      swap3\n      swap2\n      pop\n      pop\n      jump\t// out\n        /* \"#utility.yul\":5379:5684   */\n    tag_137:\n      0x00\n        /* \"#utility.yul\":5438:5458   */\n      tag_209\n        /* \"#utility.yul\":5456:5457   */\n      dup3\n        /* \"#utility.yul\":5438:5458   */\n      tag_191\n      jump\t// in\n    tag_209:\n        /* \"#utility.yul\":5433:5458   */\n      swap2\n      pop\n        /* \"#utility.yul\":5472:5492   */\n      tag_210\n        /* \"#utility.yul\":5490:5491   */\n      dup4\n        /* \"#utility.yul\":5472:5492   */\n      tag_191\n      jump\t// in\n    tag_210:\n        /* \"#utility.yul\":5467:5492   */\n      swap3\n      pop\n        /* \"#utility.yul\":5626:5627   */\n      dup3\n        /* \"#utility.yul\":5558:5624   */\n      0xffffffffffffffffffffffffffffffffffffffffffffffffffffffffffffffff\n        /* \"#utility.yul\":5554:5628   */\n      sub\n        /* \"#utility.yul\":5551:5552   */\n      dup3\n        /* \"#utility.yul\":5548:5629   */\n      gt\n        /* \"#utility.yul\":5545:5547   */\n      iszero\n      tag_211\n      jumpi\n        /* \"#utility.yul\":5632:5650   */\n      tag_212\n      tag_213\n      jump\t// in\n    tag_212:\n        /* \"#utility.yul\":5545:5547   */\n    tag_211:\n        /* \"#utility.yul\":5676:5677   */\n      dup3\n        /* \"#utility.yul\":5673:5674   */\n      dup3\n        /* \"#utility.yul\":5669:5678   */\n      add\n        /* \"#utility.yul\":5662:5678   */\n      swap1\n      pop\n        /* \"#utility.yul\":5423:5684   */\n      swap3\n      swap2\n      pop\n      pop\n      jump\t// out\n        /* \"#utility.yul\":5690:5875   */\n    tag_127:\n      0x00\n        /* \"#utility.yul\":5747:5767   */\n      tag_215\n        /* \"#utility.yul\":5765:5766   */\n      dup3\n        /* \"#utility.yul\":5747:5767   */\n      tag_191\n      jump\t// in\n    tag_215:\n        /* \"#utility.yul\":5742:5767   */\n      swap2\n      pop\n        /* \"#utility.yul\":5781:5801   */\n      tag_216\n        /* \"#utility.yul\":5799:5800   */\n      dup4\n        /* \"#utility.yul\":5781:5801   */\n      tag_191\n      jump\t// in\n    tag_216:\n        /* \"#utility.yul\":5776:5801   */\n      swap3\n      pop\n        /* \"#utility.yul\":5820:5821   */\n      dup3\n        /* \"#utility.yul\":5810:5812   */\n      tag_217\n      jumpi\n        /* \"#utility.yul\":5825:5843   */\n      tag_218\n      tag_219\n      jump\t// in\n    tag_218:\n        /* \"#utility.yul\":5810:5812   */\n    tag_217:\n        /* \"#utility.yul\":5867:5868   */\n      dup3\n        /* \"#utility.yul\":5864:5865   */\n      dup3\n        /* \"#utility.yul\":5860:5869   */\n      div\n        /* \"#utility.yul\":5855:5869   */\n      swap1\n      pop\n        /* \"#utility.yul\":5732:5875   */\n      swap3\n      swap2\n      pop\n      pop\n      jump\t// out\n        /* \"#utility.yul\":5881:6229   */\n    tag_130:\n      0x00\n        /* \"#utility.yul\":5944:5964   */\n      tag_221\n        /* \"#utility.yul\":5962:5963   */\n      dup3\n        /* \"#utility.yul\":5944:5964   */\n      tag_191\n      jump\t// in\n    tag_221:\n        /* \"#utility.yul\":5939:5964   */\n      swap2\n      pop\n        /* \"#utility.yul\":5978:5998   */\n      tag_222\n        /* \"#utility.yul\":5996:5997   */\n      dup4\n        /* \"#utility.yul\":5978:5998   */\n      tag_191\n      jump\t// in\n    tag_222:\n        /* \"#utility.yul\":5973:5998   */\n      swap3\n      pop\n        /* \"#utility.yul\":6166:6167   */\n      dup2\n        /* \"#utility.yul\":6098:6164   */\n      0xffffffffffffffffffffffffffffffffffffffffffffffffffffffffffffffff\n        /* \"#utility.yul\":6094:6168   */\n      div\n        /* \"#utility.yul\":6091:6092   */\n      dup4\n        /* \"#utility.yul\":6088:6169   */\n      gt\n        /* \"#utility.yul\":6083:6084   */\n      dup3\n        /* \"#utility.yul\":6076:6085   */\n      iszero\n        /* \"#utility.yul\":6069:6086   */\n      iszero\n        /* \"#utility.yul\":6065:6170   */\n      and\n        /* \"#utility.yul\":6062:6064   */\n      iszero\n      tag_223\n      jumpi\n        /* \"#utility.yul\":6173:6191   */\n      tag_224\n      tag_213\n      jump\t// in\n    tag_224:\n        /* \"#utility.yul\":6062:6064   */\n    tag_223:\n        /* \"#utility.yul\":6221:6222   */\n      dup3\n        /* \"#utility.yul\":6218:6219   */\n      dup3\n        /* \"#utility.yul\":6214:6223   */\n      mul\n        /* \"#utility.yul\":6203:6223   */\n      swap1\n      pop\n        /* \"#utility.yul\":5929:6229   */\n      swap3\n      swap2\n      pop\n      pop\n      jump\t// out\n        /* \"#utility.yul\":6235:6426   */\n    tag_118:\n      0x00\n        /* \"#utility.yul\":6295:6315   */\n      tag_226\n        /* \"#utility.yul\":6313:6314   */\n      dup3\n        /* \"#utility.yul\":6295:6315   */\n      tag_191\n      jump\t// in\n    tag_226:\n        /* \"#utility.yul\":6290:6315   */\n      swap2\n      pop\n        /* \"#utility.yul\":6329:6349   */\n      tag_227\n        /* \"#utility.yul\":6347:6348   */\n      dup4\n        /* \"#utility.yul\":6329:6349   */\n      tag_191\n      jump\t// in\n    tag_227:\n        /* \"#utility.yul\":6324:6349   */\n      swap3\n      pop\n        /* \"#utility.yul\":6368:6369   */\n      dup3\n        /* \"#utility.yul\":6365:6366   */\n      dup3\n        /* \"#utility.yul\":6362:6370   */\n      lt\n        /* \"#utility.yul\":6359:6361   */\n      iszero\n      tag_228\n      jumpi\n        /* \"#utility.yul\":6373:6391   */\n      tag_229\n      tag_213\n      jump\t// in\n    tag_229:\n        /* \"#utility.yul\":6359:6361   */\n    tag_228:\n        /* \"#utility.yul\":6418:6419   */\n      dup3\n        /* \"#utility.yul\":6415:6416   */\n      dup3\n        /* \"#utility.yul\":6411:6420   */\n      sub\n        /* \"#utility.yul\":6403:6420   */\n      swap1\n      pop\n        /* \"#utility.yul\":6280:6426   */\n      swap3\n      swap2\n      pop\n      pop\n      jump\t// out\n        /* \"#utility.yul\":6432:6528   */\n    tag_230:\n      0x00\n        /* \"#utility.yul\":6498:6522   */\n      tag_232\n        /* \"#utility.yul\":6516:6521   */\n      dup3\n        /* \"#utility.yul\":6498:6522   */\n      tag_233\n      jump\t// in\n    tag_232:\n        /* \"#utility.yul\":6487:6522   */\n      swap1\n      pop\n        /* \"#utility.yul\":6477:6528   */\n      swap2\n      swap1\n      pop\n      jump\t// out\n        /* \"#utility.yul\":6534:6624   */\n    tag_174:\n      0x00\n        /* \"#utility.yul\":6611:6616   */\n      dup2\n        /* \"#utility.yul\":6604:6617   */\n      iszero\n        /* \"#utility.yul\":6597:6618   */\n      iszero\n        /* \"#utility.yul\":6586:6618   */\n      swap1\n      pop\n        /* \"#utility.yul\":6576:6624   */\n      swap2\n      swap1\n      pop\n      jump\t// out\n        /* \"#utility.yul\":6630:6756   */\n    tag_233:\n      0x00\n        /* \"#utility.yul\":6707:6749   */\n      0xffffffffffffffffffffffffffffffffffffffff\n        /* \"#utility.yul\":6700:6705   */\n      dup3\n        /* \"#utility.yul\":6696:6750   */\n      and\n        /* \"#utility.yul\":6685:6750   */\n      swap1\n      pop\n        /* \"#utility.yul\":6675:6756   */\n      swap2\n      swap1\n      pop\n      jump\t// out\n        /* \"#utility.yul\":6762:6839   */\n    tag_191:\n      0x00\n        /* \"#utility.yul\":6828:6833   */\n      dup2\n        /* \"#utility.yul\":6817:6833   */\n      swap1\n      pop\n        /* \"#utility.yul\":6807:6839   */\n      swap2\n      swap1\n      pop\n      jump\t// out\n        /* \"#utility.yul\":6845:6931   */\n    tag_195:\n      0x00\n        /* \"#utility.yul\":6920:6924   */\n      0xff\n        /* \"#utility.yul\":6913:6918   */\n      dup3\n        /* \"#utility.yul\":6909:6925   */\n      and\n        /* \"#utility.yul\":6898:6925   */\n      swap1\n      pop\n        /* \"#utility.yul\":6888:6931   */\n      swap2\n      swap1\n      pop\n      jump\t// out\n        /* \"#utility.yul\":6937:7244   */\n    tag_182:\n        /* \"#utility.yul\":7005:7006   */\n      0x00\n        /* \"#utility.yul\":7015:7128   */\n    tag_239:\n        /* \"#utility.yul\":7029:7035   */\n      dup4\n        /* \"#utility.yul\":7026:7027   */\n      dup2\n        /* \"#utility.yul\":7023:7036   */\n      lt\n        /* \"#utility.yul\":7015:7128   */\n      iszero\n      tag_241\n      jumpi\n        /* \"#utility.yul\":7114:7115   */\n      dup1\n        /* \"#utility.yul\":7109:7112   */\n      dup3\n        /* \"#utility.yul\":7105:7116   */\n      add\n        /* \"#utility.yul\":7099:7117   */\n      mload\n        /* \"#utility.yul\":7095:7096   */\n      dup2\n        /* \"#utility.yul\":7090:7093   */\n      dup5\n        /* \"#utility.yul\":7086:7097   */\n      add\n        /* \"#utility.yul\":7079:7118   */\n      mstore\n        /* \"#utility.yul\":7051:7053   */\n      0x20\n        /* \"#utility.yul\":7048:7049   */\n      dup2\n        /* \"#utility.yul\":7044:7054   */\n      add\n        /* \"#utility.yul\":7039:7054   */\n      swap1\n      pop\n        /* \"#utility.yul\":7015:7128   */\n      jump(tag_239)\n    tag_241:\n        /* \"#utility.yul\":7146:7152   */\n      dup4\n        /* \"#utility.yul\":7143:7144   */\n      dup2\n        /* \"#utility.yul\":7140:7153   */\n      gt\n        /* \"#utility.yul\":7137:7139   */\n      iszero\n      tag_242\n      jumpi\n        /* \"#utility.yul\":7226:7227   */\n      0x00\n        /* \"#utility.yul\":7217:7223   */\n      dup5\n        /* \"#utility.yul\":7212:7215   */\n      dup5\n        /* \"#utility.yul\":7208:7224   */\n      add\n        /* \"#utility.yul\":7201:7228   */\n      mstore\n        /* \"#utility.yul\":7137:7139   */\n    tag_242:\n        /* \"#utility.yul\":6986:7244   */\n      pop\n      pop\n      pop\n      pop\n      jump\t// out\n        /* \"#utility.yul\":7250:7570   */\n    tag_87:\n      0x00\n        /* \"#utility.yul\":7331:7332   */\n      0x02\n        /* \"#utility.yul\":7325:7329   */\n      dup3\n        /* \"#utility.yul\":7321:7333   */\n      div\n        /* \"#utility.yul\":7311:7333   */\n      swap1\n      pop\n        /* \"#utility.yul\":7378:7379   */\n      0x01\n        /* \"#utility.yul\":7372:7376   */\n      dup3\n        /* \"#utility.yul\":7368:7380   */\n      and\n        /* \"#utility.yul\":7399:7417   */\n      dup1\n        /* \"#utility.yul\":7389:7391   */\n      tag_244\n      jumpi\n        /* \"#utility.yul\":7455:7459   */\n      0x7f\n        /* \"#utility.yul\":7447:7453   */\n      dup3\n        /* \"#utility.yul\":7443:7460   */\n      and\n        /* \"#utility.yul\":7433:7460   */\n      swap2\n      pop\n        /* \"#utility.yul\":7389:7391   */\n    tag_244:\n        /* \"#utility.yul\":7517:7519   */\n      0x20\n        /* \"#utility.yul\":7509:7515   */\n      dup3\n        /* \"#utility.yul\":7506:7520   */\n      lt\n        /* \"#utility.yul\":7486:7504   */\n      dup2\n        /* \"#utility.yul\":7483:7521   */\n      eq\n        /* \"#utility.yul\":7480:7482   */\n      iszero\n      tag_245\n      jumpi\n        /* \"#utility.yul\":7536:7554   */\n      tag_246\n      tag_247\n      jump\t// in\n    tag_246:\n        /* \"#utility.yul\":7480:7482   */\n    tag_245:\n        /* \"#utility.yul\":7301:7570   */\n      pop\n      swap2\n      swap1\n      pop\n      jump\t// out\n        /* \"#utility.yul\":7576:7756   */\n    tag_213:\n        /* \"#utility.yul\":7624:7701   */\n      0x4e487b7100000000000000000000000000000000000000000000000000000000\n        /* \"#utility.yul\":7621:7622   */\n      0x00\n        /* \"#utility.yul\":7614:7702   */\n      mstore\n        /* \"#utility.yul\":7721:7725   */\n      0x11\n        /* \"#utility.yul\":7718:7719   */\n      0x04\n        /* \"#utility.yul\":7711:7726   */\n      mstore\n        /* \"#utility.yul\":7745:7749   */\n      0x24\n        /* \"#utility.yul\":7742:7743   */\n      0x00\n        /* \"#utility.yul\":7735:7750   */\n      revert\n        /* \"#utility.yul\":7762:7942   */\n    tag_219:\n        /* \"#utility.yul\":7810:7887   */\n      0x4e487b7100000000000000000000000000000000000000000000000000000000\n        /* \"#utility.yul\":7807:7808   */\n      0x00\n        /* \"#utility.yul\":7800:7888   */\n      mstore\n        /* \"#utility.yul\":7907:7911   */\n      0x12\n        /* \"#utility.yul\":7904:7905   */\n      0x04\n        /* \"#utility.yul\":7897:7912   */\n      mstore\n        /* \"#utility.yul\":7931:7935   */\n      0x24\n        /* \"#utility.yul\":7928:7929   */\n      0x00\n        /* \"#utility.yul\":7921:7936   */\n      revert\n        /* \"#utility.yul\":7948:8128   */\n    tag_247:\n        /* \"#utility.yul\":7996:8073   */\n      0x4e487b7100000000000000000000000000000000000000000000000000000000\n        /* \"#utility.yul\":7993:7994   */\n      0x00\n        /* \"#utility.yul\":7986:8074   */\n      mstore\n        /* \"#utility.yul\":8093:8097   */\n      0x22\n        /* \"#utility.yul\":8090:8091   */\n      0x04\n        /* \"#utility.yul\":8083:8098   */\n      mstore\n        /* \"#utility.yul\":8117:8121   */\n      0x24\n        /* \"#utility.yul\":8114:8115   */\n      0x00\n        /* \"#utility.yul\":8107:8122   */\n      revert\n        /* \"#utility.yul\":8134:8236   */\n    tag_184:\n      0x00\n        /* \"#utility.yul\":8226:8228   */\n      0x1f\n        /* \"#utility.yul\":8222:8229   */\n      not\n        /* \"#utility.yul\":8217:8219   */\n      0x1f\n        /* \"#utility.yul\":8210:8215   */\n      dup4\n        /* \"#utility.yul\":8206:8220   */\n      add\n        /* \"#utility.yul\":8202:8230   */\n      and\n        /* \"#utility.yul\":8192:8230   */\n      swap1\n      pop\n        /* \"#utility.yul\":8182:8236   */\n      swap2\n      swap1\n      pop\n      jump\t// out\n        /* \"#utility.yul\":8242:8364   */\n    tag_143:\n        /* \"#utility.yul\":8315:8339   */\n      tag_253\n        /* \"#utility.yul\":8333:8338   */\n      dup2\n        /* \"#utility.yul\":8315:8339   */\n      tag_230\n      jump\t// in\n    tag_253:\n        /* \"#utility.yul\":8308:8313   */\n      dup2\n        /* \"#utility.yul\":8305:8340   */\n      eq\n        /* \"#utility.yul\":8295:8297   */\n      tag_254\n      jumpi\n        /* \"#utility.yul\":8354:8355   */\n      0x00\n        /* \"#utility.yul\":8351:8352   */\n      dup1\n        /* \"#utility.yul\":8344:8356   */\n      revert\n        /* \"#utility.yul\":8295:8297   */\n    tag_254:\n        /* \"#utility.yul\":8285:8364   */\n      pop\n      jump\t// out\n        /* \"#utility.yul\":8370:8492   */\n    tag_147:\n        /* \"#utility.yul\":8443:8467   */\n      tag_256\n        /* \"#utility.yul\":8461:8466   */\n      dup2\n        /* \"#utility.yul\":8443:8467   */\n      tag_191\n      jump\t// in\n    tag_256:\n        /* \"#utility.yul\":8436:8441   */\n      dup2\n        /* \"#utility.yul\":8433:8468   */\n      eq\n        /* \"#utility.yul\":8423:8425   */\n      tag_257\n      jumpi\n        /* \"#utility.yul\":8482:8483   */\n      0x00\n        /* \"#utility.yul\":8479:8480   */\n      dup1\n        /* \"#utility.yul\":8472:8484   */\n      revert\n        /* \"#utility.yul\":8423:8425   */\n    tag_257:\n        /* \"#utility.yul\":8413:8492   */\n      pop\n      jump\t// out\n\n    auxdata: 0xa2646970667358221220cf264a117bb3b31b67ddd9260c7a9ea94df217471ba016cae5998e0312fa9c9164736f6c63430008000033\n}\n",
				"bytecode": {
					"linkReferences": {},
					"object": "60806040523480156200001157600080fd5b5060405162001732380380620017328339818101604052810190620000379190620002be565b6040518060400160405280600a81526020017f4368726973546f6b656e000000000000000000000000000000000000000000008152506040518060400160405280600581526020017f43485249530000000000000000000000000000000000000000000000000000008152506012838360019080519060200190620000be929190620001f7565b508260009080519060200190620000d7929190620001f7565b5081600260006101000a81548160ff021916908360ff16021790555080600381905550600354600460003373ffffffffffffffffffffffffffffffffffffffff1673ffffffffffffffffffffffffffffffffffffffff168152602001908152602001600020819055505050505080600460003373ffffffffffffffffffffffffffffffffffffffff1673ffffffffffffffffffffffffffffffffffffffff168152602001908152602001600020819055503373ffffffffffffffffffffffffffffffffffffffff16600073ffffffffffffffffffffffffffffffffffffffff167fddf252ad1be2c89b69c2b068fc378daa952ba7f163c4a11628f55a4df523b3ef83604051620001e89190620002fb565b60405180910390a350620003a1565b828054620002059062000322565b90600052602060002090601f01602090048101928262000229576000855562000275565b82601f106200024457805160ff191683800117855562000275565b8280016001018555821562000275579182015b828111156200027457825182559160200191906001019062000257565b5b50905062000284919062000288565b5090565b5b80821115620002a357600081600090555060010162000289565b5090565b600081519050620002b88162000387565b92915050565b600060208284031215620002d157600080fd5b6000620002e184828501620002a7565b91505092915050565b620002f58162000318565b82525050565b6000602082019050620003126000830184620002ea565b92915050565b6000819050919050565b600060028204905060018216806200033b57607f821691505b6020821081141562000352576200035162000358565b5b50919050565b7f4e487b7100000000000000000000000000000000000000000000000000000000600052602260045260246000fd5b620003928162000318565b81146200039e57600080fd5b50565b61138180620003b16000396000f3fe608060405234801561001057600080fd5b50600436106100f55760003560e01c806370a0823111610097578063b5931f7c11610066578063b5931f7c146102b0578063d05c78da146102e0578063dd62ed3e14610310578063e6cb901314610340576100f5565b806370a082311461020257806395d89b4114610232578063a293d1e814610250578063a9059cbb14610280576100f5565b806323b872dd116100d357806323b872dd14610166578063313ce567146101965780633eaaf86b146101b457806342966c68146101d2576100f5565b806306fdde03146100fa578063095ea7b31461011857806318160ddd14610148575b600080fd5b610102610370565b60405161010f919061101c565b60405180910390f35b610132600480360381019061012d9190610eba565b6103fe565b60405161013f9190611001565b60405180910390f35b6101506104f0565b60405161015d919061105e565b60405180910390f35b610180600480360381019061017b9190610e6b565b6104fa565b60405161018d9190611001565b60405180910390f35b61019e61085f565b6040516101ab9190611079565b60405180910390f35b6101bc610872565b6040516101c9919061105e565b60405180910390f35b6101ec60048036038101906101e79190610ef6565b610878565b6040516101f99190611001565b60405180910390f35b61021c60048036038101906102179190610e06565b610a09565b604051610229919061105e565b60405180910390f35b61023a610a52565b604051610247919061101c565b60405180910390f35b61026a60048036038101906102659190610f1f565b610ae0565b604051610277919061105e565b60405180910390f35b61029a60048036038101906102959190610eba565b610b03565b6040516102a79190611001565b60405180910390f35b6102ca60048036038101906102c59190610f1f565b610cd8565b6040516102d7919061105e565b60405180910390f35b6102fa60048036038101906102f59190610f1f565b610cfa565b604051610307919061105e565b60405180910390f35b61032a60048036038101906103259190610e2f565b610d32565b604051610337919061105e565b60405180910390f35b61035a60048036038101906103559190610f1f565b610db9565b604051610367919061105e565b60405180910390f35b6001805461037d9061124d565b80601f01602080910402602001604051908101604052809291908181526020018280546103a99061124d565b80156103f65780601f106103cb576101008083540402835291602001916103f6565b820191906000526020600020905b8154815290600101906020018083116103d957829003601f168201915b505050505081565b600081600560003373ffffffffffffffffffffffffffffffffffffffff1673ffffffffffffffffffffffffffffffffffffffff16815260200190815260200160002060008573ffffffffffffffffffffffffffffffffffffffff1673ffffffffffffffffffffffffffffffffffffffff168152602001908152602001600020819055508273ffffffffffffffffffffffffffffffffffffffff163373ffffffffffffffffffffffffffffffffffffffff167f8c5be1e5ebec7d5bd14f71427d1e84f3dd0314c0f7b2291e5b200ac8c7c3b925846040516104de919061105e565b60405180910390a36001905092915050565b6000600354905090565b6000600460008573ffffffffffffffffffffffffffffffffffffffff1673ffffffffffffffffffffffffffffffffffffffff1681526020019081526020016000205482111561054857600080fd5b600560008573ffffffffffffffffffffffffffffffffffffffff1673ffffffffffffffffffffffffffffffffffffffff16815260200190815260200160002060003373ffffffffffffffffffffffffffffffffffffffff1673ffffffffffffffffffffffffffffffffffffffff168152602001908152602001600020548211156105d157600080fd5b61061a600460008673ffffffffffffffffffffffffffffffffffffffff1673ffffffffffffffffffffffffffffffffffffffff1681526020019081526020016000205483610ae0565b600460008673ffffffffffffffffffffffffffffffffffffffff1673ffffffffffffffffffffffffffffffffffffffff168152602001908152602001600020819055506106e3600560008673ffffffffffffffffffffffffffffffffffffffff1673ffffffffffffffffffffffffffffffffffffffff16815260200190815260200160002060003373ffffffffffffffffffffffffffffffffffffffff1673ffffffffffffffffffffffffffffffffffffffff1681526020019081526020016000205483610ae0565b600560008673ffffffffffffffffffffffffffffffffffffffff1673ffffffffffffffffffffffffffffffffffffffff16815260200190815260200160002060003373ffffffffffffffffffffffffffffffffffffffff1673ffffffffffffffffffffffffffffffffffffffff168152602001908152602001600020819055506107ac600460008573ffffffffffffffffffffffffffffffffffffffff1673ffffffffffffffffffffffffffffffffffffffff1681526020019081526020016000205483610db9565b600460008573ffffffffffffffffffffffffffffffffffffffff1673ffffffffffffffffffffffffffffffffffffffff168152602001908152602001600020819055508273ffffffffffffffffffffffffffffffffffffffff168473ffffffffffffffffffffffffffffffffffffffff167fddf252ad1be2c89b69c2b068fc378daa952ba7f163c4a11628f55a4df523b3ef8460405161084c919061105e565b60405180910390a3600190509392505050565b600260009054906101000a900460ff1681565b60035481565b6000600460003373ffffffffffffffffffffffffffffffffffffffff1673ffffffffffffffffffffffffffffffffffffffff168152602001908152602001600020548211156108fc576040517f08c379a00000000000000000000000000000000000000000000000000000000081526004016108f39061103e565b60405180910390fd5b610945600460003373ffffffffffffffffffffffffffffffffffffffff1673ffffffffffffffffffffffffffffffffffffffff1681526020019081526020016000205483610ae0565b600460003373ffffffffffffffffffffffffffffffffffffffff1673ffffffffffffffffffffffffffffffffffffffff1681526020019081526020016000208190555061099460035483610ae0565b600381905550600073ffffffffffffffffffffffffffffffffffffffff163373ffffffffffffffffffffffffffffffffffffffff167fddf252ad1be2c89b69c2b068fc378daa952ba7f163c4a11628f55a4df523b3ef846040516109f8919061105e565b60405180910390a360019050919050565b6000600460008373ffffffffffffffffffffffffffffffffffffffff1673ffffffffffffffffffffffffffffffffffffffff168152602001908152602001600020549050919050565b60008054610a5f9061124d565b80601f0160208091040260200160405190810160405280929190818152602001828054610a8b9061124d565b8015610ad85780601f10610aad57610100808354040283529160200191610ad8565b820191906000526020600020905b815481529060010190602001808311610abb57829003601f168201915b505050505081565b600082821115610aef57600080fd5b8183610afb9190611191565b905092915050565b6000600460003373ffffffffffffffffffffffffffffffffffffffff1673ffffffffffffffffffffffffffffffffffffffff16815260200190815260200160002054821115610b5157600080fd5b610b9a600460003373ffffffffffffffffffffffffffffffffffffffff1673ffffffffffffffffffffffffffffffffffffffff1681526020019081526020016000205483610ae0565b600460003373ffffffffffffffffffffffffffffffffffffffff1673ffffffffffffffffffffffffffffffffffffffff16815260200190815260200160002081905550610c26600460008573ffffffffffffffffffffffffffffffffffffffff1673ffffffffffffffffffffffffffffffffffffffff1681526020019081526020016000205483610db9565b600460008573ffffffffffffffffffffffffffffffffffffffff1673ffffffffffffffffffffffffffffffffffffffff168152602001908152602001600020819055508273ffffffffffffffffffffffffffffffffffffffff163373ffffffffffffffffffffffffffffffffffffffff167fddf252ad1be2c89b69c2b068fc378daa952ba7f163c4a11628f55a4df523b3ef84604051610cc6919061105e565b60405180910390a36001905092915050565b6000808211610ce657600080fd5b8183610cf29190611106565b905092915050565b60008183610d089190611137565b90506000831480610d235750818382610d219190611106565b145b610d2c57600080fd5b92915050565b6000600560008473ffffffffffffffffffffffffffffffffffffffff1673ffffffffffffffffffffffffffffffffffffffff16815260200190815260200160002060008373ffffffffffffffffffffffffffffffffffffffff1673ffffffffffffffffffffffffffffffffffffffff16815260200190815260200160002054905092915050565b60008183610dc791906110b0565b905082811015610dd657600080fd5b92915050565b600081359050610deb8161131d565b92915050565b600081359050610e0081611334565b92915050565b600060208284031215610e1857600080fd5b6000610e2684828501610ddc565b91505092915050565b60008060408385031215610e4257600080fd5b6000610e5085828601610ddc565b9250506020610e6185828601610ddc565b9150509250929050565b600080600060608486031215610e8057600080fd5b6000610e8e86828701610ddc565b9350506020610e9f86828701610ddc565b9250506040610eb086828701610df1565b9150509250925092565b60008060408385031215610ecd57600080fd5b6000610edb85828601610ddc565b9250506020610eec85828601610df1565b9150509250929050565b600060208284031215610f0857600080fd5b6000610f1684828501610df1565b91505092915050565b60008060408385031215610f3257600080fd5b6000610f4085828601610df1565b9250506020610f5185828601610df1565b9150509250929050565b610f64816111d7565b82525050565b6000610f7582611094565b610f7f818561109f565b9350610f8f81856020860161121a565b610f988161130c565b840191505092915050565b6000610fb0601e8361109f565b91507f53616c646f20696e737566696369656e7465207061726120717565696d6100006000830152602082019050919050565b610fec81611203565b82525050565b610ffb8161120d565b82525050565b60006020820190506110166000830184610f5b565b92915050565b600060208201905081810360008301526110368184610f6a565b905092915050565b6000602082019050818103600083015261105781610fa3565b9050919050565b60006020820190506110736000830184610fe3565b92915050565b600060208201905061108e6000830184610ff2565b92915050565b600081519050919050565b600082825260208201905092915050565b60006110bb82611203565b91506110c683611203565b9250827fffffffffffffffffffffffffffffffffffffffffffffffffffffffffffffffff038211156110fb576110fa61127f565b5b828201905092915050565b600061111182611203565b915061111c83611203565b92508261112c5761112b6112ae565b5b828204905092915050565b600061114282611203565b915061114d83611203565b9250817fffffffffffffffffffffffffffffffffffffffffffffffffffffffffffffffff04831182151516156111865761118561127f565b5b828202905092915050565b600061119c82611203565b91506111a783611203565b9250828210156111ba576111b961127f565b5b828203905092915050565b60006111d0826111e3565b9050919050565b60008115159050919050565b600073ffffffffffffffffffffffffffffffffffffffff82169050919050565b6000819050919050565b600060ff82169050919050565b60005b8381101561123857808201518184015260208101905061121d565b83811115611247576000848401525b50505050565b6000600282049050600182168061126557607f821691505b60208210811415611279576112786112dd565b5b50919050565b7f4e487b7100000000000000000000000000000000000000000000000000000000600052601160045260246000fd5b7f4e487b7100000000000000000000000000000000000000000000000000000000600052601260045260246000fd5b7f4e487b7100000000000000000000000000000000000000000000000000000000600052602260045260246000fd5b6000601f19601f8301169050919050565b611326816111c5565b811461133157600080fd5b50565b61133d81611203565b811461134857600080fd5b5056fea2646970667358221220cf264a117bb3b31b67ddd9260c7a9ea94df217471ba016cae5998e0312fa9c9164736f6c63430008000033",
					"opcodes": "PUSH1 0x80 PUSH1 0x40 MSTORE CALLVALUE DUP1 ISZERO PUSH3 0x11 JUMPI PUSH1 0x0 DUP1 REVERT JUMPDEST POP PUSH1 0x40 MLOAD PUSH3 0x1732 CODESIZE SUB DUP1 PUSH3 0x1732 DUP4 CODECOPY DUP2 DUP2 ADD PUSH1 0x40 MSTORE DUP2 ADD SWAP1 PUSH3 0x37 SWAP2 SWAP1 PUSH3 0x2BE JUMP JUMPDEST PUSH1 0x40 MLOAD DUP1 PUSH1 0x40 ADD PUSH1 0x40 MSTORE DUP1 PUSH1 0xA DUP2 MSTORE PUSH1 0x20 ADD PUSH32 0x4368726973546F6B656E00000000000000000000000000000000000000000000 DUP2 MSTORE POP PUSH1 0x40 MLOAD DUP1 PUSH1 0x40 ADD PUSH1 0x40 MSTORE DUP1 PUSH1 0x5 DUP2 MSTORE PUSH1 0x20 ADD PUSH32 0x4348524953000000000000000000000000000000000000000000000000000000 DUP2 MSTORE POP PUSH1 0x12 DUP4 DUP4 PUSH1 0x1 SWAP1 DUP1 MLOAD SWAP1 PUSH1 0x20 ADD SWAP1 PUSH3 0xBE SWAP3 SWAP2 SWAP1 PUSH3 0x1F7 JUMP JUMPDEST POP DUP3 PUSH1 0x0 SWAP1 DUP1 MLOAD SWAP1 PUSH1 0x20 ADD SWAP1 PUSH3 0xD7 SWAP3 SWAP2 SWAP1 PUSH3 0x1F7 JUMP JUMPDEST POP DUP2 PUSH1 0x2 PUSH1 0x0 PUSH2 0x100 EXP DUP2 SLOAD DUP2 PUSH1 0xFF MUL NOT AND SWAP1 DUP4 PUSH1 0xFF AND MUL OR SWAP1 SSTORE POP DUP1 PUSH1 0x3 DUP2 SWAP1 SSTORE POP PUSH1 0x3 SLOAD PUSH1 0x4 PUSH1 0x0 CALLER PUSH20 0xFFFFFFFFFFFFFFFFFFFFFFFFFFFFFFFFFFFFFFFF AND PUSH20 0xFFFFFFFFFFFFFFFFFFFFFFFFFFFFFFFFFFFFFFFF AND DUP2 MSTORE PUSH1 0x20 ADD SWAP1 DUP2 MSTORE PUSH1 0x20 ADD PUSH1 0x0 KECCAK256 DUP2 SWAP1 SSTORE POP POP POP POP POP DUP1 PUSH1 0x4 PUSH1 0x0 CALLER PUSH20 0xFFFFFFFFFFFFFFFFFFFFFFFFFFFFFFFFFFFFFFFF AND PUSH20 0xFFFFFFFFFFFFFFFFFFFFFFFFFFFFFFFFFFFFFFFF AND DUP2 MSTORE PUSH1 0x20 ADD SWAP1 DUP2 MSTORE PUSH1 0x20 ADD PUSH1 0x0 KECCAK256 DUP2 SWAP1 SSTORE POP CALLER PUSH20 0xFFFFFFFFFFFFFFFFFFFFFFFFFFFFFFFFFFFFFFFF AND PUSH1 0x0 PUSH20 0xFFFFFFFFFFFFFFFFFFFFFFFFFFFFFFFFFFFFFFFF AND PUSH32 0xDDF252AD1BE2C89B69C2B068FC378DAA952BA7F163C4A11628F55A4DF523B3EF DUP4 PUSH1 0x40 MLOAD PUSH3 0x1E8 SWAP2 SWAP1 PUSH3 0x2FB JUMP JUMPDEST PUSH1 0x40 MLOAD DUP1 SWAP2 SUB SWAP1 LOG3 POP PUSH3 0x3A1 JUMP JUMPDEST DUP3 DUP1 SLOAD PUSH3 0x205 SWAP1 PUSH3 0x322 JUMP JUMPDEST SWAP1 PUSH1 0x0 MSTORE PUSH1 0x20 PUSH1 0x0 KECCAK256 SWAP1 PUSH1 0x1F ADD PUSH1 0x20 SWAP1 DIV DUP2 ADD SWAP3 DUP3 PUSH3 0x229 JUMPI PUSH1 0x0 DUP6 SSTORE PUSH3 0x275 JUMP JUMPDEST DUP3 PUSH1 0x1F LT PUSH3 0x244 JUMPI DUP1 MLOAD PUSH1 0xFF NOT AND DUP4 DUP1 ADD OR DUP6 SSTORE PUSH3 0x275 JUMP JUMPDEST DUP3 DUP1 ADD PUSH1 0x1 ADD DUP6 SSTORE DUP3 ISZERO PUSH3 0x275 JUMPI SWAP2 DUP3 ADD JUMPDEST DUP3 DUP2 GT ISZERO PUSH3 0x274 JUMPI DUP3 MLOAD DUP3 SSTORE SWAP2 PUSH1 0x20 ADD SWAP2 SWAP1 PUSH1 0x1 ADD SWAP1 PUSH3 0x257 JUMP JUMPDEST JUMPDEST POP SWAP1 POP PUSH3 0x284 SWAP2 SWAP1 PUSH3 0x288 JUMP JUMPDEST POP SWAP1 JUMP JUMPDEST JUMPDEST DUP1 DUP3 GT ISZERO PUSH3 0x2A3 JUMPI PUSH1 0x0 DUP2 PUSH1 0x0 SWAP1 SSTORE POP PUSH1 0x1 ADD PUSH3 0x289 JUMP JUMPDEST POP SWAP1 JUMP JUMPDEST PUSH1 0x0 DUP2 MLOAD SWAP1 POP PUSH3 0x2B8 DUP2 PUSH3 0x387 JUMP JUMPDEST SWAP3 SWAP2 POP POP JUMP JUMPDEST PUSH1 0x0 PUSH1 0x20 DUP3 DUP5 SUB SLT ISZERO PUSH3 0x2D1 JUMPI PUSH1 0x0 DUP1 REVERT JUMPDEST PUSH1 0x0 PUSH3 0x2E1 DUP5 DUP3 DUP6 ADD PUSH3 0x2A7 JUMP JUMPDEST SWAP2 POP POP SWAP3 SWAP2 POP POP JUMP JUMPDEST PUSH3 0x2F5 DUP2 PUSH3 0x318 JUMP JUMPDEST DUP3 MSTORE POP POP JUMP JUMPDEST PUSH1 0x0 PUSH1 0x20 DUP3 ADD SWAP1 POP PUSH3 0x312 PUSH1 0x0 DUP4 ADD DUP5 PUSH3 0x2EA JUMP JUMPDEST SWAP3 SWAP2 POP POP JUMP JUMPDEST PUSH1 0x0 DUP2 SWAP1 POP SWAP2 SWAP1 POP JUMP JUMPDEST PUSH1 0x0 PUSH1 0x2 DUP3 DIV SWAP1 POP PUSH1 0x1 DUP3 AND DUP1 PUSH3 0x33B JUMPI PUSH1 0x7F DUP3 AND SWAP2 POP JUMPDEST PUSH1 0x20 DUP3 LT DUP2 EQ ISZERO PUSH3 0x352 JUMPI PUSH3 0x351 PUSH3 0x358 JUMP JUMPDEST JUMPDEST POP SWAP2 SWAP1 POP JUMP JUMPDEST PUSH32 0x4E487B7100000000000000000000000000000000000000000000000000000000 PUSH1 0x0 MSTORE PUSH1 0x22 PUSH1 0x4 MSTORE PUSH1 0x24 PUSH1 0x0 REVERT JUMPDEST PUSH3 0x392 DUP2 PUSH3 0x318 JUMP JUMPDEST DUP2 EQ PUSH3 0x39E JUMPI PUSH1 0x0 DUP1 REVERT JUMPDEST POP JUMP JUMPDEST PUSH2 0x1381 DUP1 PUSH3 0x3B1 PUSH1 0x0 CODECOPY PUSH1 0x0 RETURN INVALID PUSH1 0x80 PUSH1 0x40 MSTORE CALLVALUE DUP1 ISZERO PUSH2 0x10 JUMPI PUSH1 0x0 DUP1 REVERT JUMPDEST POP PUSH1 0x4 CALLDATASIZE LT PUSH2 0xF5 JUMPI PUSH1 0x0 CALLDATALOAD PUSH1 0xE0 SHR DUP1 PUSH4 0x70A08231 GT PUSH2 0x97 JUMPI DUP1 PUSH4 0xB5931F7C GT PUSH2 0x66 JUMPI DUP1 PUSH4 0xB5931F7C EQ PUSH2 0x2B0 JUMPI DUP1 PUSH4 0xD05C78DA EQ PUSH2 0x2E0 JUMPI DUP1 PUSH4 0xDD62ED3E EQ PUSH2 0x310 JUMPI DUP1 PUSH4 0xE6CB9013 EQ PUSH2 0x340 JUMPI PUSH2 0xF5 JUMP JUMPDEST DUP1 PUSH4 0x70A08231 EQ PUSH2 0x202 JUMPI DUP1 PUSH4 0x95D89B41 EQ PUSH2 0x232 JUMPI DUP1 PUSH4 0xA293D1E8 EQ PUSH2 0x250 JUMPI DUP1 PUSH4 0xA9059CBB EQ PUSH2 0x280 JUMPI PUSH2 0xF5 JUMP JUMPDEST DUP1 PUSH4 0x23B872DD GT PUSH2 0xD3 JUMPI DUP1 PUSH4 0x23B872DD EQ PUSH2 0x166 JUMPI DUP1 PUSH4 0x313CE567 EQ PUSH2 0x196 JUMPI DUP1 PUSH4 0x3EAAF86B EQ PUSH2 0x1B4 JUMPI DUP1 PUSH4 0x42966C68 EQ PUSH2 0x1D2 JUMPI PUSH2 0xF5 JUMP JUMPDEST DUP1 PUSH4 0x6FDDE03 EQ PUSH2 0xFA JUMPI DUP1 PUSH4 0x95EA7B3 EQ PUSH2 0x118 JUMPI DUP1 PUSH4 0x18160DDD EQ PUSH2 0x148 JUMPI JUMPDEST PUSH1 0x0 DUP1 REVERT JUMPDEST PUSH2 0x102 PUSH2 0x370 JUMP JUMPDEST PUSH1 0x40 MLOAD PUSH2 0x10F SWAP2 SWAP1 PUSH2 0x101C JUMP JUMPDEST PUSH1 0x40 MLOAD DUP1 SWAP2 SUB SWAP1 RETURN JUMPDEST PUSH2 0x132 PUSH1 0x4 DUP1 CALLDATASIZE SUB DUP2 ADD SWAP1 PUSH2 0x12D SWAP2 SWAP1 PUSH2 0xEBA JUMP JUMPDEST PUSH2 0x3FE JUMP JUMPDEST PUSH1 0x40 MLOAD PUSH2 0x13F SWAP2 SWAP1 PUSH2 0x1001 JUMP JUMPDEST PUSH1 0x40 MLOAD DUP1 SWAP2 SUB SWAP1 RETURN JUMPDEST PUSH2 0x150 PUSH2 0x4F0 JUMP JUMPDEST PUSH1 0x40 MLOAD PUSH2 0x15D SWAP2 SWAP1 PUSH2 0x105E JUMP JUMPDEST PUSH1 0x40 MLOAD DUP1 SWAP2 SUB SWAP1 RETURN JUMPDEST PUSH2 0x180 PUSH1 0x4 DUP1 CALLDATASIZE SUB DUP2 ADD SWAP1 PUSH2 0x17B SWAP2 SWAP1 PUSH2 0xE6B JUMP JUMPDEST PUSH2 0x4FA JUMP JUMPDEST PUSH1 0x40 MLOAD PUSH2 0x18D SWAP2 SWAP1 PUSH2 0x1001 JUMP JUMPDEST PUSH1 0x40 MLOAD DUP1 SWAP2 SUB SWAP1 RETURN JUMPDEST PUSH2 0x19E PUSH2 0x85F JUMP JUMPDEST PUSH1 0x40 MLOAD PUSH2 0x1AB SWAP2 SWAP1 PUSH2 0x1079 JUMP JUMPDEST PUSH1 0x40 MLOAD DUP1 SWAP2 SUB SWAP1 RETURN JUMPDEST PUSH2 0x1BC PUSH2 0x872 JUMP JUMPDEST PUSH1 0x40 MLOAD PUSH2 0x1C9 SWAP2 SWAP1 PUSH2 0x105E JUMP JUMPDEST PUSH1 0x40 MLOAD DUP1 SWAP2 SUB SWAP1 RETURN JUMPDEST PUSH2 0x1EC PUSH1 0x4 DUP1 CALLDATASIZE SUB DUP2 ADD SWAP1 PUSH2 0x1E7 SWAP2 SWAP1 PUSH2 0xEF6 JUMP JUMPDEST PUSH2 0x878 JUMP JUMPDEST PUSH1 0x40 MLOAD PUSH2 0x1F9 SWAP2 SWAP1 PUSH2 0x1001 JUMP JUMPDEST PUSH1 0x40 MLOAD DUP1 SWAP2 SUB SWAP1 RETURN JUMPDEST PUSH2 0x21C PUSH1 0x4 DUP1 CALLDATASIZE SUB DUP2 ADD SWAP1 PUSH2 0x217 SWAP2 SWAP1 PUSH2 0xE06 JUMP JUMPDEST PUSH2 0xA09 JUMP JUMPDEST PUSH1 0x40 MLOAD PUSH2 0x229 SWAP2 SWAP1 PUSH2 0x105E JUMP JUMPDEST PUSH1 0x40 MLOAD DUP1 SWAP2 SUB SWAP1 RETURN JUMPDEST PUSH2 0x23A PUSH2 0xA52 JUMP JUMPDEST PUSH1 0x40 MLOAD PUSH2 0x247 SWAP2 SWAP1 PUSH2 0x101C JUMP JUMPDEST PUSH1 0x40 MLOAD DUP1 SWAP2 SUB SWAP1 RETURN JUMPDEST PUSH2 0x26A PUSH1 0x4 DUP1 CALLDATASIZE SUB DUP2 ADD SWAP1 PUSH2 0x265 SWAP2 SWAP1 PUSH2 0xF1F JUMP JUMPDEST PUSH2 0xAE0 JUMP JUMPDEST PUSH1 0x40 MLOAD PUSH2 0x277 SWAP2 SWAP1 PUSH2 0x105E JUMP JUMPDEST PUSH1 0x40 MLOAD DUP1 SWAP2 SUB SWAP1 RETURN JUMPDEST PUSH2 0x29A PUSH1 0x4 DUP1 CALLDATASIZE SUB DUP2 ADD SWAP1 PUSH2 0x295 SWAP2 SWAP1 PUSH2 0xEBA JUMP JUMPDEST PUSH2 0xB03 JUMP JUMPDEST PUSH1 0x40 MLOAD PUSH2 0x2A7 SWAP2 SWAP1 PUSH2 0x1001 JUMP JUMPDEST PUSH1 0x40 MLOAD DUP1 SWAP2 SUB SWAP1 RETURN JUMPDEST PUSH2 0x2CA PUSH1 0x4 DUP1 CALLDATASIZE SUB DUP2 ADD SWAP1 PUSH2 0x2C5 SWAP2 SWAP1 PUSH2 0xF1F JUMP JUMPDEST PUSH2 0xCD8 JUMP JUMPDEST PUSH1 0x40 MLOAD PUSH2 0x2D7 SWAP2 SWAP1 PUSH2 0x105E JUMP JUMPDEST PUSH1 0x40 MLOAD DUP1 SWAP2 SUB SWAP1 RETURN JUMPDEST PUSH2 0x2FA PUSH1 0x4 DUP1 CALLDATASIZE SUB DUP2 ADD SWAP1 PUSH2 0x2F5 SWAP2 SWAP1 PUSH2 0xF1F JUMP JUMPDEST PUSH2 0xCFA JUMP JUMPDEST PUSH1 0x40 MLOAD PUSH2 0x307 SWAP2 SWAP1 PUSH2 0x105E JUMP JUMPDEST PUSH1 0x40 MLOAD DUP1 SWAP2 SUB SWAP1 RETURN JUMPDEST PUSH2 0x32A PUSH1 0x4 DUP1 CALLDATASIZE SUB DUP2 ADD SWAP1 PUSH2 0x325 SWAP2 SWAP1 PUSH2 0xE2F JUMP JUMPDEST PUSH2 0xD32 JUMP JUMPDEST PUSH1 0x40 MLOAD PUSH2 0x337 SWAP2 SWAP1 PUSH2 0x105E JUMP JUMPDEST PUSH1 0x40 MLOAD DUP1 SWAP2 SUB SWAP1 RETURN JUMPDEST PUSH2 0x35A PUSH1 0x4 DUP1 CALLDATASIZE SUB DUP2 ADD SWAP1 PUSH2 0x355 SWAP2 SWAP1 PUSH2 0xF1F JUMP JUMPDEST PUSH2 0xDB9 JUMP JUMPDEST PUSH1 0x40 MLOAD PUSH2 0x367 SWAP2 SWAP1 PUSH2 0x105E JUMP JUMPDEST PUSH1 0x40 MLOAD DUP1 SWAP2 SUB SWAP1 RETURN JUMPDEST PUSH1 0x1 DUP1 SLOAD PUSH2 0x37D SWAP1 PUSH2 0x124D JUMP JUMPDEST DUP1 PUSH1 0x1F ADD PUSH1 0x20 DUP1 SWAP2 DIV MUL PUSH1 0x20 ADD PUSH1 0x40 MLOAD SWAP1 DUP2 ADD PUSH1 0x40 MSTORE DUP1 SWAP3 SWAP2 SWAP1 DUP2 DUP2 MSTORE PUSH1 0x20 ADD DUP3 DUP1 SLOAD PUSH2 0x3A9 SWAP1 PUSH2 0x124D JUMP JUMPDEST DUP1 ISZERO PUSH2 0x3F6 JUMPI DUP1 PUSH1 0x1F LT PUSH2 0x3CB JUMPI PUSH2 0x100 DUP1 DUP4 SLOAD DIV MUL DUP4 MSTORE SWAP2 PUSH1 0x20 ADD SWAP2 PUSH2 0x3F6 JUMP JUMPDEST DUP3 ADD SWAP2 SWAP1 PUSH1 0x0 MSTORE PUSH1 0x20 PUSH1 0x0 KECCAK256 SWAP1 JUMPDEST DUP2 SLOAD DUP2 MSTORE SWAP1 PUSH1 0x1 ADD SWAP1 PUSH1 0x20 ADD DUP1 DUP4 GT PUSH2 0x3D9 JUMPI DUP3 SWAP1 SUB PUSH1 0x1F AND DUP3 ADD SWAP2 JUMPDEST POP POP POP POP POP DUP2 JUMP JUMPDEST PUSH1 0x0 DUP2 PUSH1 0x5 PUSH1 0x0 CALLER PUSH20 0xFFFFFFFFFFFFFFFFFFFFFFFFFFFFFFFFFFFFFFFF AND PUSH20 0xFFFFFFFFFFFFFFFFFFFFFFFFFFFFFFFFFFFFFFFF AND DUP2 MSTORE PUSH1 0x20 ADD SWAP1 DUP2 MSTORE PUSH1 0x20 ADD PUSH1 0x0 KECCAK256 PUSH1 0x0 DUP6 PUSH20 0xFFFFFFFFFFFFFFFFFFFFFFFFFFFFFFFFFFFFFFFF AND PUSH20 0xFFFFFFFFFFFFFFFFFFFFFFFFFFFFFFFFFFFFFFFF AND DUP2 MSTORE PUSH1 0x20 ADD SWAP1 DUP2 MSTORE PUSH1 0x20 ADD PUSH1 0x0 KECCAK256 DUP2 SWAP1 SSTORE POP DUP3 PUSH20 0xFFFFFFFFFFFFFFFFFFFFFFFFFFFFFFFFFFFFFFFF AND CALLER PUSH20 0xFFFFFFFFFFFFFFFFFFFFFFFFFFFFFFFFFFFFFFFF AND PUSH32 0x8C5BE1E5EBEC7D5BD14F71427D1E84F3DD0314C0F7B2291E5B200AC8C7C3B925 DUP5 PUSH1 0x40 MLOAD PUSH2 0x4DE SWAP2 SWAP1 PUSH2 0x105E JUMP JUMPDEST PUSH1 0x40 MLOAD DUP1 SWAP2 SUB SWAP1 LOG3 PUSH1 0x1 SWAP1 POP SWAP3 SWAP2 POP POP JUMP JUMPDEST PUSH1 0x0 PUSH1 0x3 SLOAD SWAP1 POP SWAP1 JUMP JUMPDEST PUSH1 0x0 PUSH1 0x4 PUSH1 0x0 DUP6 PUSH20 0xFFFFFFFFFFFFFFFFFFFFFFFFFFFFFFFFFFFFFFFF AND PUSH20 0xFFFFFFFFFFFFFFFFFFFFFFFFFFFFFFFFFFFFFFFF AND DUP2 MSTORE PUSH1 0x20 ADD SWAP1 DUP2 MSTORE PUSH1 0x20 ADD PUSH1 0x0 KECCAK256 SLOAD DUP3 GT ISZERO PUSH2 0x548 JUMPI PUSH1 0x0 DUP1 REVERT JUMPDEST PUSH1 0x5 PUSH1 0x0 DUP6 PUSH20 0xFFFFFFFFFFFFFFFFFFFFFFFFFFFFFFFFFFFFFFFF AND PUSH20 0xFFFFFFFFFFFFFFFFFFFFFFFFFFFFFFFFFFFFFFFF AND DUP2 MSTORE PUSH1 0x20 ADD SWAP1 DUP2 MSTORE PUSH1 0x20 ADD PUSH1 0x0 KECCAK256 PUSH1 0x0 CALLER PUSH20 0xFFFFFFFFFFFFFFFFFFFFFFFFFFFFFFFFFFFFFFFF AND PUSH20 0xFFFFFFFFFFFFFFFFFFFFFFFFFFFFFFFFFFFFFFFF AND DUP2 MSTORE PUSH1 0x20 ADD SWAP1 DUP2 MSTORE PUSH1 0x20 ADD PUSH1 0x0 KECCAK256 SLOAD DUP3 GT ISZERO PUSH2 0x5D1 JUMPI PUSH1 0x0 DUP1 REVERT JUMPDEST PUSH2 0x61A PUSH1 0x4 PUSH1 0x0 DUP7 PUSH20 0xFFFFFFFFFFFFFFFFFFFFFFFFFFFFFFFFFFFFFFFF AND PUSH20 0xFFFFFFFFFFFFFFFFFFFFFFFFFFFFFFFFFFFFFFFF AND DUP2 MSTORE PUSH1 0x20 ADD SWAP1 DUP2 MSTORE PUSH1 0x20 ADD PUSH1 0x0 KECCAK256 SLOAD DUP4 PUSH2 0xAE0 JUMP JUMPDEST PUSH1 0x4 PUSH1 0x0 DUP7 PUSH20 0xFFFFFFFFFFFFFFFFFFFFFFFFFFFFFFFFFFFFFFFF AND PUSH20 0xFFFFFFFFFFFFFFFFFFFFFFFFFFFFFFFFFFFFFFFF AND DUP2 MSTORE PUSH1 0x20 ADD SWAP1 DUP2 MSTORE PUSH1 0x20 ADD PUSH1 0x0 KECCAK256 DUP2 SWAP1 SSTORE POP PUSH2 0x6E3 PUSH1 0x5 PUSH1 0x0 DUP7 PUSH20 0xFFFFFFFFFFFFFFFFFFFFFFFFFFFFFFFFFFFFFFFF AND PUSH20 0xFFFFFFFFFFFFFFFFFFFFFFFFFFFFFFFFFFFFFFFF AND DUP2 MSTORE PUSH1 0x20 ADD SWAP1 DUP2 MSTORE PUSH1 0x20 ADD PUSH1 0x0 KECCAK256 PUSH1 0x0 CALLER PUSH20 0xFFFFFFFFFFFFFFFFFFFFFFFFFFFFFFFFFFFFFFFF AND PUSH20 0xFFFFFFFFFFFFFFFFFFFFFFFFFFFFFFFFFFFFFFFF AND DUP2 MSTORE PUSH1 0x20 ADD SWAP1 DUP2 MSTORE PUSH1 0x20 ADD PUSH1 0x0 KECCAK256 SLOAD DUP4 PUSH2 0xAE0 JUMP JUMPDEST PUSH1 0x5 PUSH1 0x0 DUP7 PUSH20 0xFFFFFFFFFFFFFFFFFFFFFFFFFFFFFFFFFFFFFFFF AND PUSH20 0xFFFFFFFFFFFFFFFFFFFFFFFFFFFFFFFFFFFFFFFF AND DUP2 MSTORE PUSH1 0x20 ADD SWAP1 DUP2 MSTORE PUSH1 0x20 ADD PUSH1 0x0 KECCAK256 PUSH1 0x0 CALLER PUSH20 0xFFFFFFFFFFFFFFFFFFFFFFFFFFFFFFFFFFFFFFFF AND PUSH20 0xFFFFFFFFFFFFFFFFFFFFFFFFFFFFFFFFFFFFFFFF AND DUP2 MSTORE PUSH1 0x20 ADD SWAP1 DUP2 MSTORE PUSH1 0x20 ADD PUSH1 0x0 KECCAK256 DUP2 SWAP1 SSTORE POP PUSH2 0x7AC PUSH1 0x4 PUSH1 0x0 DUP6 PUSH20 0xFFFFFFFFFFFFFFFFFFFFFFFFFFFFFFFFFFFFFFFF AND PUSH20 0xFFFFFFFFFFFFFFFFFFFFFFFFFFFFFFFFFFFFFFFF AND DUP2 MSTORE PUSH1 0x20 ADD SWAP1 DUP2 MSTORE PUSH1 0x20 ADD PUSH1 0x0 KECCAK256 SLOAD DUP4 PUSH2 0xDB9 JUMP JUMPDEST PUSH1 0x4 PUSH1 0x0 DUP6 PUSH20 0xFFFFFFFFFFFFFFFFFFFFFFFFFFFFFFFFFFFFFFFF AND PUSH20 0xFFFFFFFFFFFFFFFFFFFFFFFFFFFFFFFFFFFFFFFF AND DUP2 MSTORE PUSH1 0x20 ADD SWAP1 DUP2 MSTORE PUSH1 0x20 ADD PUSH1 0x0 KECCAK256 DUP2 SWAP1 SSTORE POP DUP3 PUSH20 0xFFFFFFFFFFFFFFFFFFFFFFFFFFFFFFFFFFFFFFFF AND DUP5 PUSH20 0xFFFFFFFFFFFFFFFFFFFFFFFFFFFFFFFFFFFFFFFF AND PUSH32 0xDDF252AD1BE2C89B69C2B068FC378DAA952BA7F163C4A11628F55A4DF523B3EF DUP5 PUSH1 0x40 MLOAD PUSH2 0x84C SWAP2 SWAP1 PUSH2 0x105E JUMP JUMPDEST PUSH1 0x40 MLOAD DUP1 SWAP2 SUB SWAP1 LOG3 PUSH1 0x1 SWAP1 POP SWAP4 SWAP3 POP POP POP JUMP JUMPDEST PUSH1 0x2 PUSH1 0x0 SWAP1 SLOAD SWAP1 PUSH2 0x100 EXP SWAP1 DIV PUSH1 0xFF AND DUP2 JUMP JUMPDEST PUSH1 0x3 SLOAD DUP2 JUMP JUMPDEST PUSH1 0x0 PUSH1 0x4 PUSH1 0x0 CALLER PUSH20 0xFFFFFFFFFFFFFFFFFFFFFFFFFFFFFFFFFFFFFFFF AND PUSH20 0xFFFFFFFFFFFFFFFFFFFFFFFFFFFFFFFFFFFFFFFF AND DUP2 MSTORE PUSH1 0x20 ADD SWAP1 DUP2 MSTORE PUSH1 0x20 ADD PUSH1 0x0 KECCAK256 SLOAD DUP3 GT ISZERO PUSH2 0x8FC JUMPI PUSH1 0x40 MLOAD PUSH32 0x8C379A000000000000000000000000000000000000000000000000000000000 DUP2 MSTORE PUSH1 0x4 ADD PUSH2 0x8F3 SWAP1 PUSH2 0x103E JUMP JUMPDEST PUSH1 0x40 MLOAD DUP1 SWAP2 SUB SWAP1 REVERT JUMPDEST PUSH2 0x945 PUSH1 0x4 PUSH1 0x0 CALLER PUSH20 0xFFFFFFFFFFFFFFFFFFFFFFFFFFFFFFFFFFFFFFFF AND PUSH20 0xFFFFFFFFFFFFFFFFFFFFFFFFFFFFFFFFFFFFFFFF AND DUP2 MSTORE PUSH1 0x20 ADD SWAP1 DUP2 MSTORE PUSH1 0x20 ADD PUSH1 0x0 KECCAK256 SLOAD DUP4 PUSH2 0xAE0 JUMP JUMPDEST PUSH1 0x4 PUSH1 0x0 CALLER PUSH20 0xFFFFFFFFFFFFFFFFFFFFFFFFFFFFFFFFFFFFFFFF AND PUSH20 0xFFFFFFFFFFFFFFFFFFFFFFFFFFFFFFFFFFFFFFFF AND DUP2 MSTORE PUSH1 0x20 ADD SWAP1 DUP2 MSTORE PUSH1 0x20 ADD PUSH1 0x0 KECCAK256 DUP2 SWAP1 SSTORE POP PUSH2 0x994 PUSH1 0x3 SLOAD DUP4 PUSH2 0xAE0 JUMP JUMPDEST PUSH1 0x3 DUP2 SWAP1 SSTORE POP PUSH1 0x0 PUSH20 0xFFFFFFFFFFFFFFFFFFFFFFFFFFFFFFFFFFFFFFFF AND CALLER PUSH20 0xFFFFFFFFFFFFFFFFFFFFFFFFFFFFFFFFFFFFFFFF AND PUSH32 0xDDF252AD1BE2C89B69C2B068FC378DAA952BA7F163C4A11628F55A4DF523B3EF DUP5 PUSH1 0x40 MLOAD PUSH2 0x9F8 SWAP2 SWAP1 PUSH2 0x105E JUMP JUMPDEST PUSH1 0x40 MLOAD DUP1 SWAP2 SUB SWAP1 LOG3 PUSH1 0x1 SWAP1 POP SWAP2 SWAP1 POP JUMP JUMPDEST PUSH1 0x0 PUSH1 0x4 PUSH1 0x0 DUP4 PUSH20 0xFFFFFFFFFFFFFFFFFFFFFFFFFFFFFFFFFFFFFFFF AND PUSH20 0xFFFFFFFFFFFFFFFFFFFFFFFFFFFFFFFFFFFFFFFF AND DUP2 MSTORE PUSH1 0x20 ADD SWAP1 DUP2 MSTORE PUSH1 0x20 ADD PUSH1 0x0 KECCAK256 SLOAD SWAP1 POP SWAP2 SWAP1 POP JUMP JUMPDEST PUSH1 0x0 DUP1 SLOAD PUSH2 0xA5F SWAP1 PUSH2 0x124D JUMP JUMPDEST DUP1 PUSH1 0x1F ADD PUSH1 0x20 DUP1 SWAP2 DIV MUL PUSH1 0x20 ADD PUSH1 0x40 MLOAD SWAP1 DUP2 ADD PUSH1 0x40 MSTORE DUP1 SWAP3 SWAP2 SWAP1 DUP2 DUP2 MSTORE PUSH1 0x20 ADD DUP3 DUP1 SLOAD PUSH2 0xA8B SWAP1 PUSH2 0x124D JUMP JUMPDEST DUP1 ISZERO PUSH2 0xAD8 JUMPI DUP1 PUSH1 0x1F LT PUSH2 0xAAD JUMPI PUSH2 0x100 DUP1 DUP4 SLOAD DIV MUL DUP4 MSTORE SWAP2 PUSH1 0x20 ADD SWAP2 PUSH2 0xAD8 JUMP JUMPDEST DUP3 ADD SWAP2 SWAP1 PUSH1 0x0 MSTORE PUSH1 0x20 PUSH1 0x0 KECCAK256 SWAP1 JUMPDEST DUP2 SLOAD DUP2 MSTORE SWAP1 PUSH1 0x1 ADD SWAP1 PUSH1 0x20 ADD DUP1 DUP4 GT PUSH2 0xABB JUMPI DUP3 SWAP1 SUB PUSH1 0x1F AND DUP3 ADD SWAP2 JUMPDEST POP POP POP POP POP DUP2 JUMP JUMPDEST PUSH1 0x0 DUP3 DUP3 GT ISZERO PUSH2 0xAEF JUMPI PUSH1 0x0 DUP1 REVERT JUMPDEST DUP2 DUP4 PUSH2 0xAFB SWAP2 SWAP1 PUSH2 0x1191 JUMP JUMPDEST SWAP1 POP SWAP3 SWAP2 POP POP JUMP JUMPDEST PUSH1 0x0 PUSH1 0x4 PUSH1 0x0 CALLER PUSH20 0xFFFFFFFFFFFFFFFFFFFFFFFFFFFFFFFFFFFFFFFF AND PUSH20 0xFFFFFFFFFFFFFFFFFFFFFFFFFFFFFFFFFFFFFFFF AND DUP2 MSTORE PUSH1 0x20 ADD SWAP1 DUP2 MSTORE PUSH1 0x20 ADD PUSH1 0x0 KECCAK256 SLOAD DUP3 GT ISZERO PUSH2 0xB51 JUMPI PUSH1 0x0 DUP1 REVERT JUMPDEST PUSH2 0xB9A PUSH1 0x4 PUSH1 0x0 CALLER PUSH20 0xFFFFFFFFFFFFFFFFFFFFFFFFFFFFFFFFFFFFFFFF AND PUSH20 0xFFFFFFFFFFFFFFFFFFFFFFFFFFFFFFFFFFFFFFFF AND DUP2 MSTORE PUSH1 0x20 ADD SWAP1 DUP2 MSTORE PUSH1 0x20 ADD PUSH1 0x0 KECCAK256 SLOAD DUP4 PUSH2 0xAE0 JUMP JUMPDEST PUSH1 0x4 PUSH1 0x0 CALLER PUSH20 0xFFFFFFFFFFFFFFFFFFFFFFFFFFFFFFFFFFFFFFFF AND PUSH20 0xFFFFFFFFFFFFFFFFFFFFFFFFFFFFFFFFFFFFFFFF AND DUP2 MSTORE PUSH1 0x20 ADD SWAP1 DUP2 MSTORE PUSH1 0x20 ADD PUSH1 0x0 KECCAK256 DUP2 SWAP1 SSTORE POP PUSH2 0xC26 PUSH1 0x4 PUSH1 0x0 DUP6 PUSH20 0xFFFFFFFFFFFFFFFFFFFFFFFFFFFFFFFFFFFFFFFF AND PUSH20 0xFFFFFFFFFFFFFFFFFFFFFFFFFFFFFFFFFFFFFFFF AND DUP2 MSTORE PUSH1 0x20 ADD SWAP1 DUP2 MSTORE PUSH1 0x20 ADD PUSH1 0x0 KECCAK256 SLOAD DUP4 PUSH2 0xDB9 JUMP JUMPDEST PUSH1 0x4 PUSH1 0x0 DUP6 PUSH20 0xFFFFFFFFFFFFFFFFFFFFFFFFFFFFFFFFFFFFFFFF AND PUSH20 0xFFFFFFFFFFFFFFFFFFFFFFFFFFFFFFFFFFFFFFFF AND DUP2 MSTORE PUSH1 0x20 ADD SWAP1 DUP2 MSTORE PUSH1 0x20 ADD PUSH1 0x0 KECCAK256 DUP2 SWAP1 SSTORE POP DUP3 PUSH20 0xFFFFFFFFFFFFFFFFFFFFFFFFFFFFFFFFFFFFFFFF AND CALLER PUSH20 0xFFFFFFFFFFFFFFFFFFFFFFFFFFFFFFFFFFFFFFFF AND PUSH32 0xDDF252AD1BE2C89B69C2B068FC378DAA952BA7F163C4A11628F55A4DF523B3EF DUP5 PUSH1 0x40 MLOAD PUSH2 0xCC6 SWAP2 SWAP1 PUSH2 0x105E JUMP JUMPDEST PUSH1 0x40 MLOAD DUP1 SWAP2 SUB SWAP1 LOG3 PUSH1 0x1 SWAP1 POP SWAP3 SWAP2 POP POP JUMP JUMPDEST PUSH1 0x0 DUP1 DUP3 GT PUSH2 0xCE6 JUMPI PUSH1 0x0 DUP1 REVERT JUMPDEST DUP2 DUP4 PUSH2 0xCF2 SWAP2 SWAP1 PUSH2 0x1106 JUMP JUMPDEST SWAP1 POP SWAP3 SWAP2 POP POP JUMP JUMPDEST PUSH1 0x0 DUP2 DUP4 PUSH2 0xD08 SWAP2 SWAP1 PUSH2 0x1137 JUMP JUMPDEST SWAP1 POP PUSH1 0x0 DUP4 EQ DUP1 PUSH2 0xD23 JUMPI POP DUP2 DUP4 DUP3 PUSH2 0xD21 SWAP2 SWAP1 PUSH2 0x1106 JUMP JUMPDEST EQ JUMPDEST PUSH2 0xD2C JUMPI PUSH1 0x0 DUP1 REVERT JUMPDEST SWAP3 SWAP2 POP POP JUMP JUMPDEST PUSH1 0x0 PUSH1 0x5 PUSH1 0x0 DUP5 PUSH20 0xFFFFFFFFFFFFFFFFFFFFFFFFFFFFFFFFFFFFFFFF AND PUSH20 0xFFFFFFFFFFFFFFFFFFFFFFFFFFFFFFFFFFFFFFFF AND DUP2 MSTORE PUSH1 0x20 ADD SWAP1 DUP2 MSTORE PUSH1 0x20 ADD PUSH1 0x0 KECCAK256 PUSH1 0x0 DUP4 PUSH20 0xFFFFFFFFFFFFFFFFFFFFFFFFFFFFFFFFFFFFFFFF AND PUSH20 0xFFFFFFFFFFFFFFFFFFFFFFFFFFFFFFFFFFFFFFFF AND DUP2 MSTORE PUSH1 0x20 ADD SWAP1 DUP2 MSTORE PUSH1 0x20 ADD PUSH1 0x0 KECCAK256 SLOAD SWAP1 POP SWAP3 SWAP2 POP POP JUMP JUMPDEST PUSH1 0x0 DUP2 DUP4 PUSH2 0xDC7 SWAP2 SWAP1 PUSH2 0x10B0 JUMP JUMPDEST SWAP1 POP DUP3 DUP2 LT ISZERO PUSH2 0xDD6 JUMPI PUSH1 0x0 DUP1 REVERT JUMPDEST SWAP3 SWAP2 POP POP JUMP JUMPDEST PUSH1 0x0 DUP2 CALLDATALOAD SWAP1 POP PUSH2 0xDEB DUP2 PUSH2 0x131D JUMP JUMPDEST SWAP3 SWAP2 POP POP JUMP JUMPDEST PUSH1 0x0 DUP2 CALLDATALOAD SWAP1 POP PUSH2 0xE00 DUP2 PUSH2 0x1334 JUMP JUMPDEST SWAP3 SWAP2 POP POP JUMP JUMPDEST PUSH1 0x0 PUSH1 0x20 DUP3 DUP5 SUB SLT ISZERO PUSH2 0xE18 JUMPI PUSH1 0x0 DUP1 REVERT JUMPDEST PUSH1 0x0 PUSH2 0xE26 DUP5 DUP3 DUP6 ADD PUSH2 0xDDC JUMP JUMPDEST SWAP2 POP POP SWAP3 SWAP2 POP POP JUMP JUMPDEST PUSH1 0x0 DUP1 PUSH1 0x40 DUP4 DUP6 SUB SLT ISZERO PUSH2 0xE42 JUMPI PUSH1 0x0 DUP1 REVERT JUMPDEST PUSH1 0x0 PUSH2 0xE50 DUP6 DUP3 DUP7 ADD PUSH2 0xDDC JUMP JUMPDEST SWAP3 POP POP PUSH1 0x20 PUSH2 0xE61 DUP6 DUP3 DUP7 ADD PUSH2 0xDDC JUMP JUMPDEST SWAP2 POP POP SWAP3 POP SWAP3 SWAP1 POP JUMP JUMPDEST PUSH1 0x0 DUP1 PUSH1 0x0 PUSH1 0x60 DUP5 DUP7 SUB SLT ISZERO PUSH2 0xE80 JUMPI PUSH1 0x0 DUP1 REVERT JUMPDEST PUSH1 0x0 PUSH2 0xE8E DUP7 DUP3 DUP8 ADD PUSH2 0xDDC JUMP JUMPDEST SWAP4 POP POP PUSH1 0x20 PUSH2 0xE9F DUP7 DUP3 DUP8 ADD PUSH2 0xDDC JUMP JUMPDEST SWAP3 POP POP PUSH1 0x40 PUSH2 0xEB0 DUP7 DUP3 DUP8 ADD PUSH2 0xDF1 JUMP JUMPDEST SWAP2 POP POP SWAP3 POP SWAP3 POP SWAP3 JUMP JUMPDEST PUSH1 0x0 DUP1 PUSH1 0x40 DUP4 DUP6 SUB SLT ISZERO PUSH2 0xECD JUMPI PUSH1 0x0 DUP1 REVERT JUMPDEST PUSH1 0x0 PUSH2 0xEDB DUP6 DUP3 DUP7 ADD PUSH2 0xDDC JUMP JUMPDEST SWAP3 POP POP PUSH1 0x20 PUSH2 0xEEC DUP6 DUP3 DUP7 ADD PUSH2 0xDF1 JUMP JUMPDEST SWAP2 POP POP SWAP3 POP SWAP3 SWAP1 POP JUMP JUMPDEST PUSH1 0x0 PUSH1 0x20 DUP3 DUP5 SUB SLT ISZERO PUSH2 0xF08 JUMPI PUSH1 0x0 DUP1 REVERT JUMPDEST PUSH1 0x0 PUSH2 0xF16 DUP5 DUP3 DUP6 ADD PUSH2 0xDF1 JUMP JUMPDEST SWAP2 POP POP SWAP3 SWAP2 POP POP JUMP JUMPDEST PUSH1 0x0 DUP1 PUSH1 0x40 DUP4 DUP6 SUB SLT ISZERO PUSH2 0xF32 JUMPI PUSH1 0x0 DUP1 REVERT JUMPDEST PUSH1 0x0 PUSH2 0xF40 DUP6 DUP3 DUP7 ADD PUSH2 0xDF1 JUMP JUMPDEST SWAP3 POP POP PUSH1 0x20 PUSH2 0xF51 DUP6 DUP3 DUP7 ADD PUSH2 0xDF1 JUMP JUMPDEST SWAP2 POP POP SWAP3 POP SWAP3 SWAP1 POP JUMP JUMPDEST PUSH2 0xF64 DUP2 PUSH2 0x11D7 JUMP JUMPDEST DUP3 MSTORE POP POP JUMP JUMPDEST PUSH1 0x0 PUSH2 0xF75 DUP3 PUSH2 0x1094 JUMP JUMPDEST PUSH2 0xF7F DUP2 DUP6 PUSH2 0x109F JUMP JUMPDEST SWAP4 POP PUSH2 0xF8F DUP2 DUP6 PUSH1 0x20 DUP7 ADD PUSH2 0x121A JUMP JUMPDEST PUSH2 0xF98 DUP2 PUSH2 0x130C JUMP JUMPDEST DUP5 ADD SWAP2 POP POP SWAP3 SWAP2 POP POP JUMP JUMPDEST PUSH1 0x0 PUSH2 0xFB0 PUSH1 0x1E DUP4 PUSH2 0x109F JUMP JUMPDEST SWAP2 POP PUSH32 0x53616C646F20696E737566696369656E7465207061726120717565696D610000 PUSH1 0x0 DUP4 ADD MSTORE PUSH1 0x20 DUP3 ADD SWAP1 POP SWAP2 SWAP1 POP JUMP JUMPDEST PUSH2 0xFEC DUP2 PUSH2 0x1203 JUMP JUMPDEST DUP3 MSTORE POP POP JUMP JUMPDEST PUSH2 0xFFB DUP2 PUSH2 0x120D JUMP JUMPDEST DUP3 MSTORE POP POP JUMP JUMPDEST PUSH1 0x0 PUSH1 0x20 DUP3 ADD SWAP1 POP PUSH2 0x1016 PUSH1 0x0 DUP4 ADD DUP5 PUSH2 0xF5B JUMP JUMPDEST SWAP3 SWAP2 POP POP JUMP JUMPDEST PUSH1 0x0 PUSH1 0x20 DUP3 ADD SWAP1 POP DUP2 DUP2 SUB PUSH1 0x0 DUP4 ADD MSTORE PUSH2 0x1036 DUP2 DUP5 PUSH2 0xF6A JUMP JUMPDEST SWAP1 POP SWAP3 SWAP2 POP POP JUMP JUMPDEST PUSH1 0x0 PUSH1 0x20 DUP3 ADD SWAP1 POP DUP2 DUP2 SUB PUSH1 0x0 DUP4 ADD MSTORE PUSH2 0x1057 DUP2 PUSH2 0xFA3 JUMP JUMPDEST SWAP1 POP SWAP2 SWAP1 POP JUMP JUMPDEST PUSH1 0x0 PUSH1 0x20 DUP3 ADD SWAP1 POP PUSH2 0x1073 PUSH1 0x0 DUP4 ADD DUP5 PUSH2 0xFE3 JUMP JUMPDEST SWAP3 SWAP2 POP POP JUMP JUMPDEST PUSH1 0x0 PUSH1 0x20 DUP3 ADD SWAP1 POP PUSH2 0x108E PUSH1 0x0 DUP4 ADD DUP5 PUSH2 0xFF2 JUMP JUMPDEST SWAP3 SWAP2 POP POP JUMP JUMPDEST PUSH1 0x0 DUP2 MLOAD SWAP1 POP SWAP2 SWAP1 POP JUMP JUMPDEST PUSH1 0x0 DUP3 DUP3 MSTORE PUSH1 0x20 DUP3 ADD SWAP1 POP SWAP3 SWAP2 POP POP JUMP JUMPDEST PUSH1 0x0 PUSH2 0x10BB DUP3 PUSH2 0x1203 JUMP JUMPDEST SWAP2 POP PUSH2 0x10C6 DUP4 PUSH2 0x1203 JUMP JUMPDEST SWAP3 POP DUP3 PUSH32 0xFFFFFFFFFFFFFFFFFFFFFFFFFFFFFFFFFFFFFFFFFFFFFFFFFFFFFFFFFFFFFFFF SUB DUP3 GT ISZERO PUSH2 0x10FB JUMPI PUSH2 0x10FA PUSH2 0x127F JUMP JUMPDEST JUMPDEST DUP3 DUP3 ADD SWAP1 POP SWAP3 SWAP2 POP POP JUMP JUMPDEST PUSH1 0x0 PUSH2 0x1111 DUP3 PUSH2 0x1203 JUMP JUMPDEST SWAP2 POP PUSH2 0x111C DUP4 PUSH2 0x1203 JUMP JUMPDEST SWAP3 POP DUP3 PUSH2 0x112C JUMPI PUSH2 0x112B PUSH2 0x12AE JUMP JUMPDEST JUMPDEST DUP3 DUP3 DIV SWAP1 POP SWAP3 SWAP2 POP POP JUMP JUMPDEST PUSH1 0x0 PUSH2 0x1142 DUP3 PUSH2 0x1203 JUMP JUMPDEST SWAP2 POP PUSH2 0x114D DUP4 PUSH2 0x1203 JUMP JUMPDEST SWAP3 POP DUP2 PUSH32 0xFFFFFFFFFFFFFFFFFFFFFFFFFFFFFFFFFFFFFFFFFFFFFFFFFFFFFFFFFFFFFFFF DIV DUP4 GT DUP3 ISZERO ISZERO AND ISZERO PUSH2 0x1186 JUMPI PUSH2 0x1185 PUSH2 0x127F JUMP JUMPDEST JUMPDEST DUP3 DUP3 MUL SWAP1 POP SWAP3 SWAP2 POP POP JUMP JUMPDEST PUSH1 0x0 PUSH2 0x119C DUP3 PUSH2 0x1203 JUMP JUMPDEST SWAP2 POP PUSH2 0x11A7 DUP4 PUSH2 0x1203 JUMP JUMPDEST SWAP3 POP DUP3 DUP3 LT ISZERO PUSH2 0x11BA JUMPI PUSH2 0x11B9 PUSH2 0x127F JUMP JUMPDEST JUMPDEST DUP3 DUP3 SUB SWAP1 POP SWAP3 SWAP2 POP POP JUMP JUMPDEST PUSH1 0x0 PUSH2 0x11D0 DUP3 PUSH2 0x11E3 JUMP JUMPDEST SWAP1 POP SWAP2 SWAP1 POP JUMP JUMPDEST PUSH1 0x0 DUP2 ISZERO ISZERO SWAP1 POP SWAP2 SWAP1 POP JUMP JUMPDEST PUSH1 0x0 PUSH20 0xFFFFFFFFFFFFFFFFFFFFFFFFFFFFFFFFFFFFFFFF DUP3 AND SWAP1 POP SWAP2 SWAP1 POP JUMP JUMPDEST PUSH1 0x0 DUP2 SWAP1 POP SWAP2 SWAP1 POP JUMP JUMPDEST PUSH1 0x0 PUSH1 0xFF DUP3 AND SWAP1 POP SWAP2 SWAP1 POP JUMP JUMPDEST PUSH1 0x0 JUMPDEST DUP4 DUP2 LT ISZERO PUSH2 0x1238 JUMPI DUP1 DUP3 ADD MLOAD DUP2 DUP5 ADD MSTORE PUSH1 0x20 DUP2 ADD SWAP1 POP PUSH2 0x121D JUMP JUMPDEST DUP4 DUP2 GT ISZERO PUSH2 0x1247 JUMPI PUSH1 0x0 DUP5 DUP5 ADD MSTORE JUMPDEST POP POP POP POP JUMP JUMPDEST PUSH1 0x0 PUSH1 0x2 DUP3 DIV SWAP1 POP PUSH1 0x1 DUP3 AND DUP1 PUSH2 0x1265 JUMPI PUSH1 0x7F DUP3 AND SWAP2 POP JUMPDEST PUSH1 0x20 DUP3 LT DUP2 EQ ISZERO PUSH2 0x1279 JUMPI PUSH2 0x1278 PUSH2 0x12DD JUMP JUMPDEST JUMPDEST POP SWAP2 SWAP1 POP JUMP JUMPDEST PUSH32 0x4E487B7100000000000000000000000000000000000000000000000000000000 PUSH1 0x0 MSTORE PUSH1 0x11 PUSH1 0x4 MSTORE PUSH1 0x24 PUSH1 0x0 REVERT JUMPDEST PUSH32 0x4E487B7100000000000000000000000000000000000000000000000000000000 PUSH1 0x0 MSTORE PUSH1 0x12 PUSH1 0x4 MSTORE PUSH1 0x24 PUSH1 0x0 REVERT JUMPDEST PUSH32 0x4E487B7100000000000000000000000000000000000000000000000000000000 PUSH1 0x0 MSTORE PUSH1 0x22 PUSH1 0x4 MSTORE PUSH1 0x24 PUSH1 0x0 REVERT JUMPDEST PUSH1 0x0 PUSH1 0x1F NOT PUSH1 0x1F DUP4 ADD AND SWAP1 POP SWAP2 SWAP1 POP JUMP JUMPDEST PUSH2 0x1326 DUP2 PUSH2 0x11C5 JUMP JUMPDEST DUP2 EQ PUSH2 0x1331 JUMPI PUSH1 0x0 DUP1 REVERT JUMPDEST POP JUMP JUMPDEST PUSH2 0x133D DUP2 PUSH2 0x1203 JUMP JUMPDEST DUP2 EQ PUSH2 0x1348 JUMPI PUSH1 0x0 DUP1 REVERT JUMPDEST POP JUMP INVALID LOG2 PUSH5 0x6970667358 0x22 SLT KECCAK256 0xCF 0x26 0x4A GT PUSH28 0xB3B31B67DDD9260C7A9EA94DF217471BA016CAE5998E0312FA9C9164 PUSH20 0x6F6C634300080000330000000000000000000000 "
				},
				"gasEstimates": {
					"creation": {
						"codeDepositCost": "998600",
						"executionCost": "infinite",
						"totalCost": "infinite"
					},
					"external": {
						"_totalSupply()": "1196",
						"allowance(address,address)": "infinite",
						"approve(address,uint256)": "infinite",
						"balanceOf(address)": "1564",
						"burn(uint256)": "infinite",
						"decimals()": "1216",
						"name()": "infinite",
						"safeAdd(uint256,uint256)": "infinite",
						"safeDiv(uint256,uint256)": "infinite",
						"safeMul(uint256,uint256)": "infinite",
						"safeSub(uint256,uint256)": "infinite",
						"symbol()": "infinite",
						"totalSupply()": "1205",
						"transfer(address,uint256)": "infinite",
						"transferFrom(address,address,uint256)": "infinite"
					}
				},
				"methodIdentifiers": {
					"_totalSupply()": "3eaaf86b",
					"allowance(address,address)": "dd62ed3e",
					"approve(address,uint256)": "095ea7b3",
					"balanceOf(address)": "70a08231",
					"burn(uint256)": "42966c68",
					"decimals()": "313ce567",
					"name()": "06fdde03",
					"safeAdd(uint256,uint256)": "e6cb9013",
					"safeDiv(uint256,uint256)": "b5931f7c",
					"safeMul(uint256,uint256)": "d05c78da",
					"safeSub(uint256,uint256)": "a293d1e8",
					"symbol()": "95d89b41",
					"totalSupply()": "18160ddd",
					"transfer(address,uint256)": "a9059cbb",
					"transferFrom(address,address,uint256)": "23b872dd"
				}
			},
			"storageLayout": {
				"storage": [
					{
						"astId": 254,
						"contract": "contracts/ChrisToken.sol:ChrisToken",
						"label": "symbol",
						"offset": 0,
						"slot": "0",
						"type": "t_string_storage"
					},
					{
						"astId": 256,
						"contract": "contracts/ChrisToken.sol:ChrisToken",
						"label": "name",
						"offset": 0,
						"slot": "1",
						"type": "t_string_storage"
					},
					{
						"astId": 258,
						"contract": "contracts/ChrisToken.sol:ChrisToken",
						"label": "decimals",
						"offset": 0,
						"slot": "2",
						"type": "t_uint8"
					},
					{
						"astId": 260,
						"contract": "contracts/ChrisToken.sol:ChrisToken",
						"label": "_totalSupply",
						"offset": 0,
						"slot": "3",
						"type": "t_uint256"
					},
					{
						"astId": 264,
						"contract": "contracts/ChrisToken.sol:ChrisToken",
						"label": "balances",
						"offset": 0,
						"slot": "4",
						"type": "t_mapping(t_address,t_uint256)"
					},
					{
						"astId": 270,
						"contract": "contracts/ChrisToken.sol:ChrisToken",
						"label": "allowed",
						"offset": 0,
						"slot": "5",
						"type": "t_mapping(t_address,t_mapping(t_address,t_uint256))"
					}
				],
				"types": {
					"t_address": {
						"encoding": "inplace",
						"label": "address",
						"numberOfBytes": "20"
					},
					"t_mapping(t_address,t_mapping(t_address,t_uint256))": {
						"encoding": "mapping",
						"key": "t_address",
						"label": "mapping(address => mapping(address => uint256))",
						"numberOfBytes": "32",
						"value": "t_mapping(t_address,t_uint256)"
					},
					"t_mapping(t_address,t_uint256)": {
						"encoding": "mapping",
						"key": "t_address",
						"label": "mapping(address => uint256)",
						"numberOfBytes": "32",
						"value": "t_uint256"
					},
					"t_string_storage": {
						"encoding": "bytes",
						"label": "string",
						"numberOfBytes": "32"
					},
					"t_uint256": {
						"encoding": "inplace",
						"label": "uint256",
						"numberOfBytes": "32"
					},
					"t_uint8": {
						"encoding": "inplace",
						"label": "uint8",
						"numberOfBytes": "1"
					}
				}
			},
			"userdoc": {
				"kind": "user",
				"methods": {},
				"version": 1
			}
		}
	}
}